:020000040000FA
:1000000000025C000000C800FF05E000FE05EA00F9
:10001000FE050300FE05DC00FE058B00FE0540002A
:10002000FE058000FF054D00FF05AB00FE05340016
:10003000FE05400040030E00FE050300FE05E10042
:10004000FE059100FE05E300FF050300FF05EF003C
:10005000FE059300FE050300FE050300C802010033
:10006000FE059200FE056200FF058400FE05D30038
:10007000FF052200FE05B900FF075A00FE05020039
:10008000FE050000FE050000FE050000FE05000064
:10009000FE05000008030000FE050000FE0500004C
:1000A000FE050000FE050000FE050000FE05000044
:1000B000FE050000FE050000FE050000FE05000034
:1000C000FE050000FE050000FE050000FE05000024
:1000D000FE050000FE050000FE050000FE05000014
:1000E000FE050000FE050000FE050000FE05000004
:1000F000FE050000FE050000FE050000FE050000F4
:10010000FE050000FE050000FE050000FE050000E3
:10011000FE050000FE050000FE050000FE050000D3
:10012000FE050000FE050000FE050000FE050000C3
:10013000FE050000FE050000FE050000FE050000B3
:10014000FE050000FE050000FE050000FE050000A3
:10015000FE050000FE050000FE050000FE05000093
:10016000FE050000FE050000FE050000FFFFFF0089
:10017000FFFFFF00FFFFFF00FFFFFF00FFFFFF008B
:10018000FFFFFF00FFFFFF00FFFFFF00FFFFFF007B
:10019000FFFFFF00FFFFFF00FFFFFF00FFFFFF006B
:1001A000FFFFFF00FFFFFF00FFFFFF00FFFFFF005B
:1001B000FFFFFF00FFFFFF00FFFFFF00FFFFFF004B
:1001C000FFFFFF00FFFFFF00FFFFFF00FFFFFF003B
:1001D000FFFFFF00FFFFFF00FFFFFF00FFFFFF002B
:1001E000FFFFFF00FFFFFF00FFFFFF00FFFFFF001B
:1001F000FFFFFF00FFFFFF00FFFFFF00FFFFFF000B
:10020000FFFFFF00FFFFFF00FE050000FE050000EE
:10021000FE050000FE050000FE050000FE050000D2
:10022000FE050000FE050000FE050000FE050000C2
:10023000FE05000040030000FE050000FE05000072
:10024000FE050000FE050000FE050000FE050000A2
:10025000FE050000FE050000FE050000C8020000CB
:10026000FE050000FE050000FE050000FE05000082
:10027000FE050000FE050000FE050000FE05000072
:10028000FE050000FE050000FE050000FE05000062
:10029000FE05000008030000FE050000FE0500004A
:1002A000FE050000FE050000FE050000FE05000042
:1002B000FE050000FE050000FE050000FE05000032
:1002C000FE050000FE050000FE050000FE05000022
:1002D000FE050000FE050000FE050000FE05000012
:1002E000FE050000FE050000FE050000FE05000002
:1002F000FE050000FE050000FE050000FE050000F2
:10030000FE050000FE050000FE050000FE050000E1
:10031000FE050000FE050000FE050000FE050000D1
:10032000FE050000FE050000FE050000FE050000C1
:10033000FE050000FE050000FE050000FE050000B1
:10034000FE050000FE050000FE050000FE050000A1
:10035000FE050000FE050000FE050000FE05000091
:10036000FE050000FE050000FE050000FFFFFF0087
:10037000FFFFFF00FFFFFF00FFFFFF00FFFFFF0089
:10038000FFFFFF00FFFFFF00FFFFFF00FFFFFF0079
:10039000FFFFFF00FFFFFF00FFFFFF00FFFFFF0069
:1003A000FFFFFF00FFFFFF00FFFFFF00FFFFFF0059
:1003B000FFFFFF00FFFFFF00FFFFFF00FFFFFF0049
:1003C000FFFFFF00FFFFFF00FFFFFF00FFFFFF0039
:1003D000FFFFFF00FFFFFF00FFFFFF00FFFFFF0029
:1003E000FFFFFF00FFFFFF00FFFFFF00FFFFFF0019
:1003F000FFFFFF00FFFFFF00FFFFFF00FFFFFF0009
:100400004F9B20000EBF20000E018800000000005E
:10041000000020000000E000020032000001200087
:100420002002880014000700F60107000000E00029
:1004300003003A00C0F9200001002000020037004C
:100440000000200001002000810F70000100320038
:1004500014000700000020000000E000020032004D
:100460000000020000000000880F020000000000F1
:100470000040DA000000FE004440A9000000200017
:100480000000E0000300320000002000A00188000E
:100490004440A800000006008A1F78008B1F7800E7
:1004A0000000060091018800800478000000EB0045
:1004B0001A003700E284440032A0B4009905BA0063
:1004C000E284440032A0B4009906BA00E2844400F9
:1004D00032A0B4000006EB00476FDE00FD07B2005B
:1004E000636CE10003003A00EBFF07000000EB0043
:1004F0000A003700606CE10004003A00005DEB0088
:100500008B05E900FDFF3E00040037006168E10053
:10051000010032000086EB000B00070019C7BA008B
:100520001905BA000E04E00003003A000A00E000DA
:10053000E0FF3A0000000600FE07B2009E018800BE
:100540008A047800F5FF3700395DBA008B05E900B1
:100550000C003200295DBA008B05E900080032006A
:100560000C00E00003003A00E284440032A0B40032
:10057000F5FF370019DDBA008B05E900FAFF3A00F4
:100580008904E800E184440032A0B40000000600C1
:100590003600F800809FBE00829FBE00849FBE0090
:1005A000869FBE000000FA0085A0A9000018800008
:1005B000C04A880010188000D04A8800C04A8000D5
:1005C00080007800009320005D070700D04A80007B
:1005D00080007800C093200059070700704B80000E
:1005E000814B800061004000E0804800704B880033
:1005F000814B88000080FA004F03BE004F02BE000E
:100600004F01BE004F00BE003600F900004006005A
:10061000809FBE000000FA008760A900504B800058
:10062000614B800061004000E0804800504B880032
:10063000614B8800604980000000E0000D0032003E
:10064000604980000000E900604988006016800071
:100650000080EA004F00DE00004078000080FB00D0
:100660004F00DD006116800001F0A1000100700064
:10067000601688000080FA004F00BE0000400600AF
:100680003600F800809FBE00829FBE00849FBE009F
:10069000869FBE00889FBE000200FA008460A90009
:1006A000E04A8000F14A800061004000E08048009C
:1006B000E04A8800F14A8800409220003000900013
:1006C000610060000000E000130032004092200052
:1006D000A00090001000900061004000E080480001
:1006E00042922000100198002101980040922000C1
:1006F000A000900010009000224E20000300200077
:100700008E010700E00F5000E08F580002003A0011
:100710002003200060498800E04A8000F14A800000
:100720009C0407000004E0002B013A0040922000E6
:1007300030009000610060000000E00004003A001A
:100740000040EB00560707000040EB00450707009C
:1007500050168000610060000000E00020003200C0
:100760004092200030009000610060000000E00036
:1007700008003200004B8000114B8000E00F500059
:10078000E08F580003003A008F03070010C0B30049
:1007900064E9B700004B8000114B8000610040000D
:1007A000E0804800004B8800114B8800004B80001F
:1007B000114B8000B20B2000030020005F010700F6
:1007C000E00F5000E08F58001D003A0064C9BF00E0
:1007D0000004E0001A003A00F80307001800370090
:1007E000004B8000114B80000E01070018C0B300C1
:1007F00002002800B3332400050107000000E000D8
:1008000001003C000044EB000804E00009003A004D
:10081000004B8000114B8000E00F5000E08F58002B
:100820000400320064C9BF000004E00001003A0087
:10083000650307006029EF006229EF006469EF009B
:100840004092200010007800610060000000E0008D
:100850003E00320010168000610060000000E000E1
:100860000A003200304B8000E10F400003003200EC
:10087000304B80000000E800304B8800304B800097
:100880008000EB00E700070011003700304B8000CC
:100890008000EB00E300070018C0B300020028004E
:1008A000B3332400DA0007000000E00001003C0040
:1008B0000044EB000804E00004003A00304B8000E4
:1008C0000000E00001003200D70307006629EF00B6
:1008D00010168000620060000000E0000A00320094
:1008E000404B8000E10F400003003200404B80008D
:1008F0000000E800404B8800404B80008000EB0087
:10090000C800070011003700404B80008000EB005A
:10091000C400070018C0B30002002800B33324004D
:10092000BB0007000000E00001003C000044EB00B9
:100930000804E00004003A00404B80000000E000A2
:1009400001003200E70307006829EF00C000200023
:10095000000F7800409220001000780061006000D5
:100960000000E0004E003A00E44A8000F54A8000B2
:100970001E0078008000EB000001BE000400BE00F5
:10098000DE00070000007800610060000040780091
:100990000004E000080032007507070010407800EE
:1009A00000447800720707001040900088407800EB
:1009B0001E060700070037006D0707002040900063
:1009C000004478006A0707003040900088407800B3
:1009D00016060700E44A8000F54A80001E007800F1
:1009E0008000EB000001BE000400BE00C300070051
:1009F0000000780061006000004078000004E00022
:100A00000C00320040922000300090006100600035
:100A10000000E0000300320055070700400090008E
:100A2000020037005207070020009000BD050700B4
:100A30000B00370040922000300090006100600001
:100A40000000E0000300320049070700500090005A
:100A5000020037004607070030009000B10507008C
:100A60004092200010049000A0049000400707006E
:100A70009008900000089000800F5400818F5C0067
:100A80005600360040922000300090006100600067
:100A90000000E00051003200CB0207004F00370099
:100AA000E44A8000F54A80001E0078008000EB00D8
:100AB0000001BE000400BE009000070000007800A6
:100AC00061006000004078000004E000080032008F
:100AD000270707001040780000447800240707002B
:100AE0001040900088407800D005070007003700CC
:100AF0001F07070020409000004478001C070700F3
:100B00003040900088407800C8050700E44A800023
:100B1000F54A80001E0078008000EB000001BE0056
:100B20000400BE007500070000007800610060004E
:100B3000004078000004E0000C00320040922000E9
:100B400030009000610060000000E000030032000F
:100B50000707070040009000020037000407070065
:100B6000200090006F0507000B0037004092200026
:100B700030009000610060000000E00003003200DF
:100B8000FB0607005000900002003700F80607003F
:100B90003000900063050700409220001004900090
:100BA000A0049000F2060700900890000008900052
:100BB000800F5400818F5C000800360040922000B6
:100BC00030009000610060000000E000030032008F
:100BD0007D02070001003700000000000080FA00DD
:100BE0004F04BE004F03BE004F02BE004F01BE00C7
:100BF0004F00BE003600F900004006000040DA0059
:100C00000000FE0000000500140020004E00370028
:100C1000F4FF2F004C0037004F89DE00820178007E
:100C2000640037006011B80072003700889FBE0072
:100C30008A9FBE008C1F7800C3000700CA003300E3
:100C400003866C006450E100240032006420E1005F
:100C5000270032006150E100220032006120E100F3
:100C6000210032008B854200EB07B1000134B8004F
:100C7000003AB8000804420089844A00013AB800EA
:100C80000030B8008880400009014A0004003300A9
:100C90000000400081804800020149008B05E90006
:100CA000C909DD008301700001003200130020003B
:100CB000C814DE004814DD004709DE001200B2004F
:100CC000C808DE00088470007900070001F0A10068
:100CD0000CF0A70001F0A000AC0037006120E1009B
:100CE000AE0032000801BE000200BE00F7FF370070
:100CF0006150E100FCFF3A00A80037006022B80014
:100D0000060220000000D0008180D2000482D200C0
:100D10008582D2000000A0000202520083825A00A5
:100D2000030031000202420083824A000000A10059
:100D30000603E900F3FF3A0000000600EFFF07009A
:100D40000400BE0000000600889FBE008A9FBE000F
:100D5000841F78007C0007004F00780011003300EA
:100D6000F0FF2F00838F6C0006003B000405650038
:100D70000A00A7000800370009F0A60010002000B4
:100D800008003700820F5400838F5C000300390095
:100D90001000200001003E000000200009F0A70024
:100DA0000000EA004F05BE004F04BE000000E00056
:100DB00000000600881F7800030478000300E000AC
:100DC00007003D0060001000E0801800600119007D
:100DD000E081190002003B0001F02D000300370004
:100DE0000400070008F0A70001F0A0004F047800FD
:100DF00000000600889FBE008A9FBE00008270002F
:100E00000402710004827100260032000004BE005A
:100E10000200BE006011B8006B092000950220009E
:100E20000182CF000A0039000541B1000082CF00E5
:100E3000070039000541B1000982CF0004003900E4
:100E40000541B1000882CF00010039000541B10021
:100E500005425200120032000A003B0082817100FC
:100E6000610164008100D1000080D3008984D30037
:100E70000884D3008B05E8000442E800F7FF3A003D
:100E8000070037000804440089844C000000480033
:100E9000818048008B05E9000442E900F9FF3A002F
:100EA000030007004F05BE004F04BE00000006000F
:100EB00081002000618055000B003D000B002000E8
:100EC00061FE2F000100E1001D00340082817100ED
:100ED000610164008904D1000884D3000000E800A7
:100EE000FAFF3A0071002000610064000300700006
:100EF000020060000900320061044400E0844C00FC
:100F00000988A500050032008B05E8006808E100AB
:100F100002003A008904D1000884D300F20F2000B7
:100F20000258E10005003D00C75DDD00F907B20091
:100F30008980750008007800000006000BF8270083
:100F40008B007800000005000004BE0016000700BA
:100F50000003BE000405BE000200BE001200070030
:100F6000844F7500000006000200BE006450E100DE
:100F7000050036006420E100020036000968A30085
:100F800001003A000800BE000160A0004F06780092
:100F90004F05BE004F04BE0000000600F0FF2F000A
:100FA000F1FF2700F9FF3700C70ADE00F107B200A2
:100FB000F50FB20008003200E1CF4200020032001B
:100FC0000170A00024000500810F700001003200B4
:100FD0000408050044000500810F700002003A007B
:100FE000140005008502E9000000400081C04800AF
:100FF000FCFF3B000170A000240005000200FA0085
:10100000004F78001E80FB00F000600010C0B300AD
:101010000100E00001003C000040EB000080FB000C
:10102000610060004300DD00211680000130A10056
:1010300001007000201688001E80FB00E8006000A0
:1010400010C0B3000100E00001003C000040EB00D4
:101050000080FB00610060004400DD00611680003C
:101060000140A10001007000601688001E80FB0096
:10107000E400600010C0B3000100E00001003C008B
:101080000040EB000080FB00610060004400DD00D8
:10109000211680000140A100010070002016880088
:1010A0001E80FB00E200600010C0B3000100E00001
:1010B00001003C000040EB000080FB00610060008C
:1010C0004700DD00611680000170A1000100700082
:1010D000601688001E80FB00E100600010C0B300B5
:1010E0000100E00001003C000040EB000080FB003C
:1010F000610060004800DD00611680000180A100F1
:1011000001007000601688000080FA0000000600F0
:101110000400FA0030C0B300004F780010C0B300E4
:101120001047980020C0B300204798001E40780068
:10113000B2FF070000502300C1002000B5050700E2
:101140000040EB00ADFF070000502300C10020006D
:10115000B00507001E409000A8FF070000502300C4
:10116000C1002000AB0507000040EB00A3FF070013
:1011700000502300C1002000A60507004006200003
:10118000604988002E4090009CFF0700005023001B
:10119000C10020009F0507000040EB0097FF0700FB
:1011A00000502300C10020009A0507000080FA00CB
:1011B000000006000000FA00C0832000610507005F
:1011C000008520005F050700408620005D050700C0
:1011D000008020005B0507004081200059050700C2
:1011E00080822000570507008087200055050700F2
:1011F000C088200053050700008A20005105070021
:10120000408B20004F050700808C20004D05070013
:101210000080FA00000006000000FA00008F2000A5
:10122000480507004090200046050700C08D2000BB
:10123000440507000080FA00000006000000FA00E4
:1012400021058000F0FF280080806000000023005E
:10125000010070002005880021088000F0FC2F00AC
:10126000008060000040A0002008880000F42100F9
:10127000100888009460A80005E1A8000080FA002A
:10128000000006000000FA0081058000F0FF280041
:10129000808060000000260001007000800588004A
:1012A00030082000A0088800B1088000C0FF2F008F
:1012B000008060000010A000B0088800B108800025
:1012C00070F82F00008060000030A000B008880097
:1012D0009760A8001641A8000080FA0000000600F0
:1012E0000000FA001119800030FC2F00008060001F
:1012F0000020A0001019880001198000000E2000B5
:1013000001007000001988002043A8002119800006
:10131000F00F2E008080600000E0210001007000CE
:1013200020198800E0C1B30024E3B7002343A800DC
:10133000808020008019880051058000F0F82F007F
:1013400080806000000620000100700050058800C9
:1013500095A0A80021E3A8000171220000932000BD
:10136000D703070001712200C0932000D4030700B7
:101370000080FA00000006000400FA001027800038
:1013800000F0A10010278800002780000040A10085
:1013900000278800102780000070A1001027880017
:1013A000102780000080A1001027880000278000FF
:1013B0000030A10000278800102780000040A10015
:1013C00010278800002780000000A1000027880067
:1013D000002780000010A10000278800102780004F
:1013E00000C0A10010278800102780000090A100F5
:1013F00010278800102780000000A1001027880017
:10140000102780000010A0001027880010278000FF
:1014100000D0A00010278800CD82A900CD22A9000D
:10142000C2C0B300E19A2000A09A20007004070017
:1014300092C0B300E19A2000A09A20006C0407003B
:10144000C442A90022C0B300C19A2000809A2000A3
:1014500067040700F2C0B300E19A2000A09A2000C0
:101460006304070042C0B300C19A2000809A2000A4
:101470005F04070072C0B300E19A2000A09A200028
:101480005B04070082C0B300E19A2000A09A20000C
:101490005704070032C0B300C19A2000809A200090
:1014A0005304070042C0B300E19A2000A09A200034
:1014B0004F0407000041EB00E19A2000A09A2000B1
:1014C000330407000041EB00C19A2000809A2000FD
:1014D0002F04070012C0B300C19A2000809A200098
:1014E0002B0407002004070009FF070053FF070033
:1014F00064FF0700F90307000000EB00000F78000D
:10150000001680000000A100001688000016800070
:101510000010A1000016880026FF0700C402A900E1
:10152000C422A900C0012000504A880010022000F7
:10153000604A880070002000704A8800514A80008C
:1015400020032000808F5000020036001000200091
:10155000504A8800614A800020032000808F50009C
:101560000200360010002000604A8800714A8000A6
:1015700020032000808F5000020036001000200061
:10158000704A8800501C2000804A880050212000AA
:10159000904A880030072000A04A880000BC220042
:1015A000580407001007980000F4210001002000F3
:1015B000980407004AFF07001E00900085040700FA
:1015C0000080FA00000006000000FA0040922000AF
:1015D000300090006100600000F0A7000000EA0009
:1015E0000000E9004F00DE008040780040922000BB
:1015F0008180FB00E1806000300190000200A100CA
:1016000082807000310098004092200030009000ED
:10161000610060000000E0003700320042922000CC
:101620006000B8001001980021019800409220004D
:1016300010007800610060000000E0001600320039
:101640004B040700604890000004E00003003200F3
:10165000604A8000004078008203070044040700CD
:10166000404890000004E00003003200504A80002F
:10167000004078008A0307003D04070050489000AE
:101680000004E00019003200704A80000040780039
:101690008303070015003700350407005048900009
:1016A0000004E00003003200704A8000004078002F
:1016B0007B0307002E040700404890000004E00070
:1016C00003003200504A8000004078007403070095
:1016D00027040700604890000004E0000300320087
:1016E000604A8000004078005E030700800C200004
:1016F000604988002F0037004092200010007800D9
:10170000610060000000E00024003200504A8000C8
:101710008000780000A02200CF030700604A80000C
:101720008000780000A42200CB030700704A8000EC
:101730008000780000A82200C70307000C040700FF
:10174000404890000004E00004003200904980000E
:101750008000780000B02200BF03070004040700E7
:10176000604890000004E00004003200F04980006E
:101770008000780000B42200B7030700FC030700D4
:10178000504890000004E0000400320090498000BE
:101790008000780000B82200AF0307000040EB0093
:1017A0003F0307000040EB002E030700003220003B
:1017B000604988000080FA00000006000000FA007E
:1017C0004092200030009000610060000000E000C6
:1017D00013003A00EE030700E5030700818C2000A8
:1017E000810F500008003A00200320006049880063
:1017F00000502300C1002000060407002003200041
:1018000060498800020037004006200060498800D7
:10181000FC0307008000780000BC22008E03070054
:101820000080FA00000006000000FA0040062000D8
:1018300060498800CE030700404890000004E000A3
:101840000A003200504A80000000E8002103200016
:10185000810F50000100360020032000504A88000C
:10186000504A8000004078000D030700C0030700C5
:10187000604890000004E0000A003200604A8000E6
:101880000000E80021032000810F50000100360015
:1018900020032000604A8800604A800000407800F1
:1018A000F0020700B2030700504890000004E00077
:1018B0000A003200704A80000000E8002103200086
:1018C000810F50000100360020032000704A88007C
:1018D000704A800000407800F10207000080FA00A2
:1018E000000006000000FA00400620006049880061
:1018F0009F030700404890000004E0000900320008
:10190000504A80000000E9000000E00001003A00B9
:1019100010002000504A8800504A800000407800A3
:10192000DF02070092030700604890000004E00017
:1019300009003200604A80000000E9000000E00079
:1019400001003A0010002000604A8800604A8000D0
:1019500000407800C302070085030700504890004C
:101960000004E00009003200704A80000000E90035
:101970000000E00001003A0010002000704A8800DA
:10198000704A800000407800C50207000080FA001D
:10199000000006000600FA00889FBE008A1F78003B
:1019A00010079800210798000040EB00004F7800D6
:1019B0000040EB00004F78004092200010007800BB
:1019C000610060000000E0000A013A00414A800026
:1019D00040062000808F500008013E00F049800042
:1019E000CF80DE008CFC07000004BE00904A80001F
:1019F0008000EB008BFC07000200200003FC2300AA
:101A00008AFC07001AC0B3000001BE000800BE0037
:101A10007FFC07000000E00001003C000045EB00F7
:101A20000A04E0000800320020C0B300004F780034
:101A300040002000E048880010002000F0488800A6
:101A40002029EF00EE00370090498000CF80DE00B3
:101A500071FC07000004BE00804A80008000EB009B
:101A600070FC07000200200003FC23006FFC07004D
:101A70001AC0B3000001BE000800BE0064FC0700ED
:101A80000000E00001003C000045EB000A04E0001B
:101A90000800320020C0B300004F78004000200052
:101AA000E04888001E29EF0010002000004988004F
:101AB000D30037002E030700404890000004E000E8
:101AC0001F00320040922000300090006100600052
:101AD0000000E0001A00320090498000CF80DE0054
:101AE0004DFC07000004BE00804A80008000EB002F
:101AF0004CFC07000200200003F023004BFC070011
:101B00001AC0B3000001BE000800BE003EFC070082
:101B10000000E000010035000045EB000A04E00091
:101B20000700320020C0B300004F78001C29EF00EE
:101B30001E29EF001000200000498800B000370087
:101B40000B030700604890000004E0001F00320013
:101B50004092200030009000610060000000E00032
:101B60001A003200F0498000CF80DE002AFC070016
:101B70000004BE00904A80008000EB0029FC0700B2
:101B80000200200003F0230028FC07001AC0B30065
:101B90000001BE000800BE001BFC07000000E000C2
:101BA000010035000045EB000A04E00007003200A8
:101BB00020C0B300004F78001C29EF001000200067
:101BC000F04888002029EF008D003700E802070068
:101BD000604890000004E00025003200E4020700A5
:101BE000404890000004E00021003A0040922000AC
:101BF00030009000610060000000E0001C00320036
:101C000090498000CF80DE0003FC07000004BE0086
:101C1000A04A80008000EB0002FC070002002000C8
:101C200003FC230001FC07001AC0B3000001BE0042
:101C30000800BE00F6FB07000000E00001003C00C9
:101C40000045EB000A04E0000900320020C0B300A8
:101C5000004F780040002000E0488800100020007D
:101C6000F048880010002000004988006400370018
:101C7000BF020700604890000004E000240032002A
:101C8000BB020700404890000004E00020003A003A
:101C90004092200030009000610060000000E000F1
:101CA0001B00320090498000CF80DE00DAFB070085
:101CB0000004BE00A04A80008000EB00D9FB0700B2
:101CC0000200200003F02300D8FB07001AC0B30075
:101CD0000001BE000800BE00CBFB07000000E000D2
:101CE000010035000045EB000A04E0000800320066
:101CF00020C0B300004F78001C29EF001000200026
:101D0000F048880010002000004988003C0037009F
:101D100097020700604890000004E00005003200D0
:101D20004092200030009000610060000000E00060
:101D30000C003A00F1498000A0052000808F50007F
:101D40000800340020C0B300004F780010002000CD
:101D5000E048880010002000F04888002029EF00AB
:101D60002700370082020700404890000004E0008E
:101D700005003200409220003000900061006000B9
:101D80000000E0001E003A0090498000CF80DE0095
:101D9000A1FB07000004BE00A04A80008000EB0009
:101DA000A0FB07000200200003FC23009FFB0700AC
:101DB0001AC0B3000001BE000800BE0094FB07007B
:101DC0000000E00001003C000045EB000A04E000D8
:101DD0000B00320020C0B300004F7800100020003C
:101DE000E04888001E29EF0010002000004988000C
:101DF0000300370000000000010037000000000071
:101E0000414A800040062000808F50002E0036009E
:101E10001E009000AE009000B204200003002000DD
:101E2000B6FB070000007800610060000040780009
:101E30000004E000040032002E29EF00802520007D
:101E400060498800010037002E29EF001E00900035
:101E5000AE009000C200200003002000A7FB070096
:101E60000000780061006000004078000004E0009D
:101E700008003200E0488000AA0007000049800006
:101E800080407800F048800000407800E7000700BC
:101E90000500370030002000A20007008040EB0062
:101EA0000040EB00E100070040922000B0009000ED
:101EB0000100A100310098000040EB005A0107002A
:101EC00010C0B3000B0037001E4078000004E00093
:101ED00005003200414A80001E80FB000080400067
:101EE000404A8800010037004829EF002E29EF0002
:101EF0000040EB004F0578004F04BE000080FA0060
:101F0000000006000000FA000080FA000000060051
:101F10000000FA0000000000113A800000022000DA
:101F2000008060000000E000FBFF320012FD0700AF
:101F3000F4FF0700FEFF37002209000050000000F8
:101F40000000000000080000220100000200000064
:101F5000010001000000000000000000000300007C
:101F60000100000000C409000000010000010000A1
:101F7000010001000001000003000100000000005A
:101F800088130000000100000100020000020000B0
:101F90000200030000010000000098003A00000069
:101FA000000100000100000000000000000300002C
:101FB0000001010000C40900000000000100010050
:101FC0000100010000010000030000000101000009
:101FD0008813000000000100000102000002000060
:101FE0000200030000000100010098003A00000018
:101FF00001010100010000000000000000030000DA
:102000000100010000C409000000010001010100FD
:1020100001000100000100000300010000010000B8
:10202000881300000001010001010200000200000D
:102030000200030000010000010098003A000000C7
:10204000010001000004000004000400000300007F
:10205000010000000074B700010001000001000051
:102060000400040000040000030001000000000060
:10207000E86E0300000101000101050000050000F9
:1020800005000300000001000000F800240100002A
:10209000010001000005000005000500000300002C
:1020A0000100000000F82400010000000100010010
:1020B000050005000005000003000000000100000D
:1020C000F8240100005F0A005F0A0400000100001C
:1020D00001000000A8090000040000000200000048
:1020E000FFFFFF00FF000000AC090000040000003B
:1020F00000000000B0090000040000000200000021
:102100000800000000000000A00900000800000016
:1021100000000000720900002E0000000000000016
:10212000000000000200FA00000F7800804D8000DF
:102130009E0F50003A0032009E007800814D8800CA
:10214000804D80000000E00004003A00C482A80036
:10215000CCE2A900CD02A90032003700804D8000FA
:10216000E10F500004003A00C482A900CCE2A800AC
:10217000CD02A9002B003700804D8000E20F5000F7
:1021800004003A00C482A900CCE2A900CD02A80054
:1021900024003700804D8000E30F500004003A0017
:1021A000C482A900CCE2A900CD02A9001D0037001D
:1021B000804D8000E40F500004003A00C482A80063
:1021C000CCE2A800CD02A80016003700804D8000A8
:1021D000E50F500004003A00C482A800CCE2A90038
:1021E000CD02A8000F003700804D8000E60F5000A0
:1021F00004003A00C482A900CCE2A800CD02A800E5
:1022000008003700804D8000E70F500005003A00BD
:10221000C482A800CCE2A800CD02A90001003700CA
:10222000000000000080FA00000006000200FA0032
:10223000004F780011479800B2C9BF009E4F500070
:102240000C0032001E417800219B2000824878005B
:10225000B2C9BF00614060000080FB006100600007
:102260004300DD00211680000130A1000100700054
:1022700020168800319B2000914078001E4090007D
:1022800080CF50000C0032001E419000319B200096
:1022900082487800B3C9BF00614060000080FB0045
:1022A000610060004400DD00611680000140A10073
:1022B00001007000601688000080FA00000006002F
:1022C0000400FA00000F7800110798001E00780043
:1022D0009E009000010878001E0078008000EB004E
:1022E000110098001E0278006000B8006011B8006C
:1022F0002002980031029800420298005302980090
:102300000080FA00000006000200FA00000F7800CA
:102310001E0078008000EB00110098001E0278007B
:102320006000B8006011B8002002980031029800E7
:1023300042029800530298000080FA000000060054
:102340000400FA00889FBE008A9FBE00000F78003C
:10235000110798001E00780020049000B00490003F
:1023600040059000D00590001E0090006102B90069
:102370001E00780010009000CF80DE0000005200A8
:1023800081805A004E0ADD004201DE000201720027
:10239000C289DE001E00780010007800CF80DE00C9
:1023A000009AB90004027800028BB9008602780016
:1023B000050242000010B8000102420084007800CB
:1023C0004F89DE00820178000000440081804C00CB
:1023D00002014D0083814D001E027800200298000A
:1023E0003102980042029800530298001E007800C3
:1023F000B000900040019000D001900020009000BB
:102400004F00DE00410ADD0000007200800078000D
:102410001E007800110098004F05BE004F04BE005A
:102420000080FA00000006000200FA00004F780069
:102430001E80FB000000EA004F00DE000040780034
:102440000080FB00610060004200DD00211680007A
:102450000120A10001007000201688000080FA0011
:10246000000006000200FA00004F78009E80FB008A
:10247000400620000088B90000017800B047210024
:102480000090B900C388DE004F90DE00008050004D
:1024900000407800AAE1B7000080FA0000000600C2
:1024A0000200FA00004F78009E80FB0040062000EA
:1024B0000088B90000017800B04721000090B90001
:1024C000C388DE004F90DE0000805000004078009E
:1024D00092E1B7000080FA00000006000000FA0058
:1024E000AA61EF009261EF004006200040088800DA
:1024F00051088000C0FF2F00008060000010A00085
:10250000500888005108800070F82F00008060009B
:102510000060A000500888000A41A800810C8000DB
:1025200000FF2F0000806000C000B300800C880016
:10253000E10C800000FF2F0000806000C000B300AD
:10254000E00C8800410D800000FF2F00008060003B
:10255000C000B300400D880010C0B300B2FF0700F8
:102560000080FA00000006000000FA00404D8000E4
:1025700000168800504D8000401688000080FA0048
:10258000000006000000FA000080FA0000000600CB
:102590000600FA00000F78001107980042479800E3
:1025A0001E009000900078004E4090000080FB00DC
:1025B000120020000010DD00810070001E0090005D
:1025C000010878001E007800900078004E409000CE
:1025D0000080FB00120020000010DD008100700070
:1025E0001E007800010878000080FA000000060054
:1025F0000600FA00000F7800110798004247980083
:102600001E009000900078004E4090000080FB007B
:10261000120020000010DD000080EA0080806000D1
:102620001E009000010878001E00780090007800DD
:102630004E4090000080FB00120020000010DD00E2
:102640000080EA00808060001E00780001087800A9
:102650000080FA00000006000400FA00000F780075
:1026600011079800FF3FFC009E007800314D880064
:102670009E009000114D880080052400003B8800DA
:102680000000200090018800304D80000008BB0051
:102690000500FC0050052000303B8800A00A200007
:1026A000303B880061E7A800000000000000000047
:1026B000FF3FFC0040002400003B88000000200099
:1026C00090018800304D8000124D800003002000F2
:1026D0000208BB000398BB000500FC005005200069
:1026E000303B8800A00A2000303B880061E7A8004A
:1026F00000000000000000005220EF000080FA00FF
:10270000000006000200FA00000F7800FF3FFC0006
:102710009E007800314D8800000020009001880064
:10272000304D80009081BA001002BA00234D88001D
:10273000044D88005220EF00004D80000080FA0018
:10274000000006000200FA00000F7800A04B800095
:102750000001400061972000810041009E08780040
:102760000000E800A04B88000080FA00000006008E
:102770000000FA00F04C80008000400060972000CC
:1027800000804000100078000080FA000000060081
:102790000200FA00F04C8000000140006197200028
:1027A00081004100110F78000000E800F04C880023
:1027B000F04C800080007800A04B8000808F50009B
:1027C000010039009E29EF001E0078000080FA0009
:1027D000000006000200FA00000F7800A04B800005
:1027E0009E007800808F5000020036000000EB0051
:1027F000000F78001E007800F04C88000080FA007E
:10280000000006000000FA00F04C80000080FA0092
:1028100000000600F03FB1000180B1000600350065
:10282000EE03090000000000403FB1000180B1004C
:10283000FBFF3D001000B000203FB000020035005B
:10284000008009000000000000000600FFFFFF00FC
:10285000FFFFFF00FFFFFF00FFFFFF00FFFFFF0084
:10286000FFFFFF00FFFFFF00FFFFFF00FFFFFF0074
:10287000FFFFFF00FFFFFF00FFFFFF00FFFFFF0064
:10288000FFFFFF00FFFFFF00FFFFFF00FFFFFF0054
:1057800003000000FFFFFF00FFFFFF00FFFFFF001F
:10579000FFFFFF00FFFFFF00FFFFFF00FFFFFF0015
:1057A000FFFFFF00FFFFFF00FFFFFF00FFFFFF0005
:1057B000FFFFFF00FFFFFF00FFFFFF00FFFFFF00F5
:1057C000FFFFFF00FFFFFF00FFFFFF00FFFFFF00E5
:1057D000FFFFFF00FFFFFF00FFFFFF00FFFFFF00D5
:1057E000FFFFFF00FFFFFF00FFFFFF00FFFFFF00C5
:1057F000FFFFFF00FFFFFF00FFFFFF00FFFFFF00B5
:0200000401F009
:100000000F0000000000000003000000410000009D
:10001000FB00000057000000980000008200000074
:0400200000000000DC
:0200000400FFFB
:10FC0000FFFF0000FFFF0000FFFF0000FFFF0000FC
:10FC1000FFFF0000FFFF0000FFFF0000FFFF0000EC
:10FC2000FFFF0000FFFF0000FFFF0000FFFF0000DC
:10FC3000FFFF0000FFFF0000FFFF0000FFFF0000CC
:00000001FF
