:020000040000fa
:080000000002040000000000f2
:020000040000fa
:04000800d605000019
:020000040000fa
:04000c00e405000007
:020000040000fa
:040010009a0600004c
:020000040000fa
:04001400f2050000f1
:020000040000fa
:0400180000060000de
:020000040000fa
:04001c009a06000040
:020000040000fa
:040020009a0600003c
:020000040000fa
:040024009a06000038
:020000040000fa
:040028009a06000034
:020000040000fa
:04002c009a06000030
:020000040000fa
:040030009a0600002c
:020000040000fa
:040034006a0400005a
:020000040000fa
:040038009a06000024
:020000040000fa
:04003c009a06000020
:020000040000fa
:040040009a0600001c
:020000040000fa
:040044006006000052
:020000040000fa
:04004800560400005a
:020000040000fa
:04004c009a06000010
:020000040000fa
:040050009a0600000c
:020000040000fa
:040054009a06000008
:020000040000fa
:040058009a06000004
:020000040000fa
:04005c002804000074
:020000040000fa
:040060009a060000fc
:020000040000fa
:040064009a060000f8
:020000040000fa
:04006800240400006c
:020000040000fa
:04006c001804000074
:020000040000fa
:040070009a060000ec
:020000040000fa
:040074009a060000e8
:020000040000fa
:040078009a060000e4
:020000040000fa
:04007c009a060000e0
:020000040000fa
:040080009a060000dc
:020000040000fa
:040084009a060000d8
:020000040000fa
:040088009a060000d4
:020000040000fa
:04008c009a060000d0
:020000040000fa
:040090009a060000cc
:020000040000fa
:040094009a060000c8
:020000040000fa
:040098009a060000c4
:020000040000fa
:04009c009a060000c0
:020000040000fa
:0400a0001206000044
:020000040000fa
:0400a4000e06000044
:020000040000fa
:0400a8009a060000b4
:020000040000fa
:0400ac000a04000042
:020000040000fa
:0400b0009a060000ac
:020000040000fa
:0400b4009a060000a8
:020000040000fa
:0400b8009a060000a4
:020000040000fa
:0400bc009a060000a0
:020000040000fa
:0400c0009a0600009c
:020000040000fa
:0400c4009a06000098
:020000040000fa
:0400c8009a06000094
:020000040000fa
:0400cc009a06000090
:020000040000fa
:0400d0009a0600008c
:020000040000fa
:0400d4009a06000088
:020000040000fa
:0400d8009a06000084
:020000040000fa
:0400dc009a06000080
:020000040000fa
:0400e0009a0600007c
:020000040000fa
:0400e4009a06000078
:020000040000fa
:0400e8009a06000074
:020000040000fa
:0400ec009a06000070
:020000040000fa
:0400f0009a0600006c
:020000040000fa
:0400f4009a06000068
:020000040000fa
:0400f8009a06000064
:020000040000fa
:0400fc009a06000060
:020000040000fa
:040100009a0600005b
:020000040000fa
:040104009a06000057
:020000040000fa
:040108009a06000053
:020000040000fa
:04010c009a0600004f
:020000040000fa
:040110009a0600004b
:020000040000fa
:040114009a06000047
:020000040000fa
:040118009a06000043
:020000040000fa
:04011c009a0600003f
:020000040000fa
:040120009a0600003b
:020000040000fa
:040124009a06000037
:020000040000fa
:040128009a06000033
:020000040000fa
:04012c009a0600002f
:020000040000fa
:040130009a0600002b
:020000040000fa
:040134009a06000027
:020000040000fa
:040138009a06000023
:020000040000fa
:04013c009a0600001f
:020000040000fa
:040140009a0600001b
:020000040000fa
:040144009a06000017
:020000040000fa
:040148009a06000013
:020000040000fa
:04014c009a0600000f
:020000040000fa
:040150009a0600000b
:020000040000fa
:040154009a06000007
:020000040000fa
:040158009a06000003
:020000040000fa
:04015c009a060000ff
:020000040000fa
:040160009a060000fb
:020000040000fa
:040164009a060000f7
:020000040000fa
:040168009a060000f3
:020000040000fa
:04016c009a060000ef
:020000040000fa
:040170009a060000eb
:020000040000fa
:040174009a060000e7
:020000040000fa
:040178009a060000e3
:020000040000fa
:04017c009a060000df
:020000040000fa
:040180009a060000db
:020000040000fa
:040184009a060000d7
:020000040000fa
:040188009a060000d3
:020000040000fa
:04018c009a060000cf
:020000040000fa
:040190009a060000cb
:020000040000fa
:040194009a060000c7
:020000040000fa
:040198009a060000c3
:020000040000fa
:04019c009a060000bf
:020000040000fa
:0401a0009a060000bb
:020000040000fa
:0401a4009a060000b7
:020000040000fa
:0401a8009a060000b3
:020000040000fa
:0401ac009a060000af
:020000040000fa
:0401b0009a060000ab
:020000040000fa
:0401b4009a060000a7
:020000040000fa
:0401b8009a060000a3
:020000040000fa
:0401bc009a0600009f
:020000040000fa
:0401c0009a0600009b
:020000040000fa
:0401c4009a06000097
:020000040000fa
:0401c8009a06000093
:020000040000fa
:0401cc009a0600008f
:020000040000fa
:0401d0009a0600008b
:020000040000fa
:0401d4009a06000087
:020000040000fa
:0401d8009a06000083
:020000040000fa
:0401dc009a0600007f
:020000040000fa
:0401e0009a0600007b
:020000040000fa
:0401e4009a06000077
:020000040000fa
:0401e8009a06000073
:020000040000fa
:0401ec009a0600006f
:020000040000fa
:0401f0009a0600006b
:020000040000fa
:0401f4009a06000067
:020000040000fa
:0401f8009a06000063
:020000040000fa
:0401fc009a0600005f
:020000040000fa
:040200009a0600005a
:020000040000fa
:040204009a06000056
:020000040000fa
:040208009a06000052
:020000040000fa
:04020c009a0600004e
:020000040000fa
:040210009a0600004a
:020000040000fa
:040214009a06000046
:020000040000fa
:040218009a06000042
:020000040000fa
:04021c009a0600003e
:020000040000fa
:040220009a0600003a
:020000040000fa
:040224009a06000036
:020000040000fa
:040228009a06000032
:020000040000fa
:04022c009a0600002e
:020000040000fa
:040230009a0600002a
:020000040000fa
:040234009a06000026
:020000040000fa
:040238009a06000022
:020000040000fa
:04023c009a0600001e
:020000040000fa
:040240009a0600001a
:020000040000fa
:040244009a06000016
:020000040000fa
:040248009a06000012
:020000040000fa
:04024c009a0600000e
:020000040000fa
:040250009a0600000a
:020000040000fa
:040254009a06000006
:020000040000fa
:040258009a06000002
:020000040000fa
:04025c009a060000fe
:020000040000fa
:040260009a060000fa
:020000040000fa
:040264009a060000f6
:020000040000fa
:040268009a060000f2
:020000040000fa
:04026c009a060000ee
:020000040000fa
:040270009a060000ea
:020000040000fa
:040274009a060000e6
:020000040000fa
:040278009a060000e2
:020000040000fa
:04027c009a060000de
:020000040000fa
:040280009a060000da
:020000040000fa
:10040000af2622000eff27000e018800000000002a
:10041000000020000000e000020032000001200087
:100420002002880014000700860207000000e00098
:1004300003003a0080792500010020000200370007
:100440000000200001002000810f70000100320038
:100450000f000700000020000000e0000200320052
:100460000000020000000000601402000100000013
:100470000040da000000fe00e0d527000000e000a8
:1004800002003200102020009001880000000600c9
:10049000a1028800800478000000eb001f003700f4
:1004a000e284440054a0b4009905ba00e2844400f8
:1004b00054a0b4009906ba00e284440054a0b400e9
:1004c0000006eb00476fde00fd07b200ae018800ba
:1004d000636ce10003003a000ad801000000eb0061
:1004e0000e003700606ce10008003a00004deb00a0
:1004f0000a05e800020039003420ec000af0a000f0
:100500008b05e900f9ff3e00040037006168e10057
:10051000010032000086eb000b00070019c7ba008b
:100520000e04e0001905ba0003003a000a00e000da
:10053000dbff3a0000000600fe07b200ae028800b2
:100540008a047800f5ff37000cd0a300e20f4d00bd
:100550001c00390089027800354dba000a05e80010
:10056000020039003420ec000af0a0008b05e900fd
:100570000f003200254dba000a05e80002003900dc
:100580003420ec000af0a0008b05e90008003200de
:100590000c00e0000600320015cdba000a05e800a4
:1005a000020039003420ec000af0a0008b05e900bd
:1005b0008984e80054a0b4000b00e000e2ff3a0098
:1005c000000006009902ba00055d78008b05e9007d
:1005d000f7ff3200c82ade00055d78008b05e900d0
:1005e000f3ff32000c00e000f1ff320019ddba0029
:1005f000eeff3700f209040001000000dc080400ef
:1006000001000000a808040001000000a008040088
:1006100001000000dc1c040001000000a81c040014
:10062000010000009e1c0400010000006a1c040080
:10063000010000008076040000000000fc76040049
:1006400000000000a075040000000000de7404003b
:1006500000000000b66f0400000000009470040069
:1006600000000000ca6e040000000000386e0400a4
:1006700000000000d67e0400000000004e7f040051
:1006800000000000327e040000000000307e040004
:1006900000000000f67d040000000000067e04005b
:1006a00000000000207e040000000000885e0400be
:1006b000000000002a5f0400000000007e5e0400cd
:1006c00000000000fa5d040000000000a81a040009
:1006d00001000000941a0400010000008c1a0400bc
:1006e000010000008a1a0400010000001211040039
:1006f000010000008a1104000100000064100400e1
:10070000010000005e10040001000000c268040047
:100710000000000060690400000000006a68040036
:1007200000000000da670400000000003e660400dc
:100730000000000090670400000000001c66040038
:1007400000000000e065040000000000d66704001f
:1007500000000000240e0400010000008e0e0400c2
:1007600001000000760d040001000000740d04007b
:10077000010000006673040000000000ae370400b2
:1007800000000000940c0400010000006617040043
:100790000100000056170400010000005efd040087
:1007a0000000000084fd040000000000b206040008
:1007b00001000000f462040000000000486504002d
:1007c00000000000ac470400000000004a040400e0
:1007d00001000000124b040000000000907a0400a9
:1007e00000000000564a040000000000b247040068
:1007f000000000000a0f0400010000003c03040098
:10080000010000008a02040001000000fc12040044
:1008100001000000801f78000428a900a025220004
:100820000048eb0060c2a9004f00780000400600bd
:10083000801f780010002000700b89000228a9009a
:100840004f007800004006000208a90000400600a2
:100850003600f800809fbe00829fbe00849fbe00cd
:10086000869fbe000600fa0001a8a90000188000bb
:10087000d0bf9f0010188000e0bf9f0020188000ac
:10088000f0bf9f0066805700421602000100000082
:100890000080fa004f03be004f02be004f01be00b1
:1008a0004f00be003600f90000400600801f7800af
:1008b0000200fa000108a9007fb897000000e800d4
:1008c000f0bf9f00500880000080fa004f007800c1
:1008d000004006003600f800809fbe00829fbe00e8
:1008e000849fbe00869fbe00889fbe008a9fbe0078
:1008f0008c9fbe008e1f7800e48747000068a90027
:100900004010810012002000030020001008410068
:1009100050904900001081001110810061004000da
:10092000e080480000108900111089000371220046
:10093000830f5000e08f580091003600e025220020
:100940001004e0008e0032000000eb00484a020074
:1009500000000000000678000000eb00764c02006a
:1009600000000000801f78000c0001004daa2f003d
:100970008d1f78000c0001006eaa2f008e1f7800da
:100980000c000100be490200000000000205be008c
:100990000004be000000eb00484a02000000000016
:1009a000c0bf9f00823e2000030020000800be0060
:1009b0001e0a020000000000809fbe00823e200050
:1009c000030020000800be00fe0902000000000035
:1009d000823e2000030020001e0a020000000000ea
:1009e000809fbe0002242400f30020000800be0007
:1009f000fe09020000000000823e200003002000eb
:100a00001e0a020000000000809fbe00a0aa2f0066
:100a1000801f78005fb1970002000100be4902000c
:100a2000000000000203be000002be008000eb00d8
:100a3000811f7800811f7800811f7800400020000e
:100a4000801f7800849fbe00869fbe0060ac2f0090
:100a5000801f78000c0001006f02b10013af2f005f
:100a6000831f78000c0001000000eb00484a0200e0
:100a700000000000000678000000eb00764c020049
:100a800000000000801f78000c0001008d1f78001e
:100a90000c0001008e1f78000c000100be4902000e
:100aa000000000000205be000004be000000eb00d4
:100ab000484a02000000000080067800823e2000c4
:100ac000030020000800be001e0a02000000000013
:100ad000809fbe00823e2000030020000800be0070
:100ae000fe09020000000000823e200003002000fa
:100af0001e0a020000000000809fbe0002242400a5
:100b0000f30020000800be00fe0902000000000003
:100b1000823e2000030020001e0a020000000000a8
:100b2000809fbe00a0aa2f00801f78000d0001004a
:100b30000000eb00c4480200000000001102800029
:100b4000c508de00801f7800e79f600060af2f00bf
:100b5000801f78000c00010012af2f00821f780068
:100b60000c00010000902000d10320000c1f0200a7
:100b70000100000040a7a800fe875700ffff3700d4
:100b80004f00b1004f0778004f06be004f05be0072
:100b90004f04be004f03be004f02be004f01be0017
:100ba0004f00be003600f900004006006120220020
:100bb000cf107800cf187800a11f7800b11f7800ff
:100bc000c028a9000040060061202200cf10780054
:100bd000cf187800a11f7800b11f7800c068a90065
:100be0000040060061202200cf107800cf18780066
:100bf000a11f7800b11f7800c048a900004006007e
:100c000061202200cf107800cf187800a11f780053
:100c1000b11f7800c088a9000040060003e8a900c1
:100c2000004006003600f800809fbe00829fbe0094
:100c3000849fbe00869fbe00881f780003c8a9005d
:100c400028262200150037003222ab0002003200b5
:100c50003222a90011003700b11180000140780054
:100c6000014c7800eacf500005003200edcf500073
:100c70000300320064040200010000000700370096
:100c800000000000000000000000000084040200da
:100c900001000000f6030200010000003202ab0078
:100ca000e9ff3a004f0478004f03be004f02be0038
:100cb0004f01be004f00be003600f90000400600a4
:100cc0003600f800809fbe00829fbe00849fbe0059
:100cd000869fbe0000e8a900402622001004e00024
:100ce00005003200410020000000eb00181a02004d
:100cf0000100000004003700410020000000eb006c
:100d0000241a020001000000402622009080fb000f
:100d10008100e900cf08de00014878004f03be00e3
:100d20004f02be004f01be004f00be003600f9006a
:100d3000004006000040da000000fe000a00fa0051
:100d4000e20f500034003e0040138100e10f5000dc
:100d500003003200e20f500011003a000c0037008f
:100d6000032220000300e00001003a000040da0006
:100d70002002e200020035002822ef0021e2a80054
:100d80002342ab000d003a002342a8000b003700bd
:100d9000032320000300e00001003a000040da00d5
:100da0003002e200020035003822ef0031e2a800f4
:100db0003342ab0001003a003342a80082017800c0
:100dc0000b0037003102fb00e10f500004003a0035
:100dd0002322ab00feff3a002411880003003700f5
:100de0003322ab00feff3a00a41188008301e90022
:100df0000300e000f3ff3a00e10f500003003a0067
:100e00002302ab00feff32000b0037003302ab00c1
:100e1000feff32000800370033002000b3bf9f0000
:100e2000c0bf9f00d1bf9f00e2bf9f006a805700f4
:100e30008b1307006fb99700020078000080fa005a
:100e40000000060000000500889fbe008a9fbe00cb
:100e50008c1f78001d0107002401330003866c00fd
:100e60006450e1002e0032006420e10033003200c3
:100e70006150e1002f0032006120e10031003200ba
:100e800085855500eb07b00009002000080420000c
:100e9000050037000804440089844c000a00310032
:100ea0000603430087834b000001530081815b00f0
:100eb000f8ff33000203be000800a000080444004d
:100ec00089844c00f6ff3900c639dd0083017300c8
:100ed00001003200130020008904d1000884d300ef
:100ee0000998a300050032000800a7000300a00035
:100ef0008904d1000884d3008b05e8008904d1005f
:100f00000884d3000001eb000281d200b400070086
:100f100001f0a1000cf0a70001f0a000fc003700d8
:100f20006420e100fe0032000801be000200be00a5
:100f3000f7ff37006120e100f90032006000b800df
:100f4000f3ff37000000200001f82700f0ff370012
:100f5000839f68000100e00002003d006000100077
:100f6000e08018000300e00002003d006001110075
:100f7000e0811900210107004f00e00002003b0062
:100f800060001000e080180000000600140020003f
:100f90005a023700f4ff2f00580237000001be004c
:100fa000b50007000470a70003f0a1006509b100b7
:100fb000160032000d0035006828e10006003500fb
:100fc000f0ff2f00f1ff27000300e00013003b00bb
:100fd000010028000000050000004000818048005a
:100fe0008502e900fcff3a0008003700f88f420054
:100ff00002003c008000eb00000005008100d100f1
:101000000080d3008502e800fcff3a000300e00006
:1010100002003b0060001000e080180000000600a5
:101020000003be00940007006011b8000470a70020
:1010300007f0a10007f8a30017003a006509b10006
:101040000d0032000d003500860220000628e10068
:1010500003003500030028006000b800020005000e
:10106000000040008180480002014900838149005e
:101070008502e900faff3a0000000600f88f4200fe
:10108000050034008100d1000080d3008502e80013
:10109000fcff3a00000006006011b8008000eb0081
:1010a000000005000001be00730007000470a700e7
:1010b00003f0a10003f8a30013003a006509b10092
:1010c00010003200090035006928e10002003500f7
:1010d0000100280000000500000040008180480059
:1010e0008502e900fcff3a0000000600f88f42008c
:1010f000050035008100d1000080d3008502e800a2
:10110000fcff3a00000006008000eb000000050034
:101110004f89de008201780013023700889fbe00ed
:101120008a9fbe0000827000040271000482710078
:10113000260032000004be000200be006011b800ac
:101140006b092000950220000182cf000a003900bf
:101150000541b1000082cf00070039000541b10010
:101160000982cf00040039000541b1000882cf0098
:10117000010039000541b100054252001200320061
:101180000a003b0082817100610164008100d1008e
:101190000080d3008984d3000884d3008b05e80045
:1011a0000442e800f7ff3a00070037000804440053
:1011b00089844c0000004800818048008b05e900cc
:1011c0000442e900f9ff3a00050007004f05be00a0
:1011d0004f04be00000006006011b800cfff3700ca
:1011e00081002000618055000b003d000b002000b5
:1011f00061fe2f000100e1001d00340082817100ba
:10120000610164008904d1000884d3000000e80073
:10121000faff3a00710020006100640003007000d2
:10122000020060000900320061044400e0844c00c8
:101230000988a500050032008b05e8006808e10078
:1012400002003a008904d1000884d300f20f200084
:101250000258e10005003d00c75ddd00f907b2005e
:101260008980750008007800000006000bf8270050
:101270008b00780000000500c70ade00f107b2000d
:10128000f50fb20008003200e1cf42000200320048
:101290000170a00024000500810f700001003200e1
:1012a0000408050044000500810f700002003a00a8
:1012b000140005008502e9000000400081c04800dc
:1012c000fcff3b000170a000240005000004be00ec
:1012d000e9ff07000003be000405be000200be00d7
:1012e000e5ff0700844f7500000006000200be0005
:1012f0006450e100050036006420e1000200360081
:101300000968a30001003a000800be000160a000c7
:101310004f0678004f05be004f04be0000000600d7
:10132000f0ff2f00f1ff2700f9ff3700889fbe0074
:101330008a9fbe008c1f7800e4ff0700ebff33009c
:1013400003866c006450e100240032006420e10058
:10135000270032006150e100220032006120e100ec
:10136000210032008b854200eb07b1000134b80048
:10137000003ab8000804420089844a00013ab800e3
:101380000030b8008880400009014a0004003300a2
:101390000000400081804800020149008b05e900ff
:1013a000c909dd0083017000010032001300200034
:1013b000c814de004814dd004709de001200b20048
:1013c000c808de000884700085ff070001f0a10056
:1013d0000cf0a70001f0a000cdff37006120e10074
:1013e000cfff32000801be000200be00f7ff370049
:1013f0006150e100fcff3a00c9ff37006022b800ed
:10140000060220000000d0008180d2000482d200b9
:101410008582d2000000a0000202520083825a009e
:10142000030031000202420083824a000000a10052
:101430000603e900f3ff3a0000000600efff070093
:101440000400be0000000600889fbe008a9fbe0008
:1014500030044200b0844a0030054b0090854b00b8
:101460006000b1000898be000a90be000440e10090
:1014700005c8e10006d0e10007d8e1000200310014
:10148000680040001008e8004f05be004f04be0091
:1014900000000600889fbe008a9fbe0010047800ee
:1014a0009004900020059000b005900004185400ae
:1014b00005985c0006185d0007985d00110020008b
:1014c0000440e10005c8e10006d0e10007d8e100d2
:1014d000010039008000eb00108810004f05be00ad
:1014e0004f04be00000006001200fa00889fbe00f4
:1014f0008a9fbe008c9fbe00e0b79f00f1b79f009f
:1015000082bf9f0093bf9f000605be000404be007b
:101510000000eb00d0b79f00c0b79f00b0b79f009e
:10152000a0b79f0090b79f00000678005fb19700ba
:10153000cfb09700820141003fb097000200e00069
:1015400004003d00370007007e805700beff070003
:1015500003003700330007007e805700cdff0700ef
:10156000dfb697000d00e0000c0035006fb2970069
:10157000ffb297000fbb97009fbb970010002000a1
:10158000010020006011b800000272008182720028
:1015900002037300838373001b0007000c06e8003e
:1015a00001042000810f5600e0ff3a000d00e0002a
:1015b00004003d000802be000a03be007e80570002
:1015c000a1ff07005fa897000000e00005003a00b7
:1015d0001fb29700afb297003fb39700cfb3970009
:1015e000090007006fb09700ffb097000fb9970090
:1015f0009fb997004f06be004f05be004f04be00c6
:101600000080fa000000060001000700000006004c
:10161000a4b79f00b5b79f00c6b79f00d7b79f007c
:10162000000006004f09de0082817100b3b79f0001
:101630004f01de008180400082807000a1b79f00d2
:101640008fb097004f09de000000400002007000dc
:1016500090b79f007fa897004f01de008180400077
:101660008280700081b79f000d0007004f3ade00b6
:101670000000400004007000f0af9f000800070069
:101680000402420085824a0006034b0087834b0018
:10169000dfff07000802be000a03be0000000600cc
:1016a0002fb29700bfb297004fb39700dfb39700f8
:1016b00000000600881f780018002000881f7800ae
:1016c00089ff07008f87e9004f04780000000600bb
:1016d000801feb0084ff07008f87e90000000600f1
:1016e000889fbe008a9fbe00e00f5000e08f580028
:1016f000e00f5900e08f59000c003d006044b80035
:101700006055b8000000540081805c0002015d005b
:1017100083815d00180020001500070008003d00cf
:10172000180007000004eb00050037000004eb0080
:101730000f00070002003d00120007001800200003
:10174000dcff07000800e000060032006022b8005d
:101750006033b8000000520081805a0002015b0033
:1017600083815b004f05be004f04be0000000600f1
:10177000e00f5200e08f5a00e00f5b00e08f5b004b
:10178000000006006044b8006055b8000402540030
:1017900085825c0006035d0087835d000000060013
:1017a000889fbe008a9fbe008c1f7800e00f50000b
:1017b000e08f5800e00f5900e08f59000d003d0008
:1017c0006044b8006055b8000000540081805c009f
:1017d00002015d0083815d001c0020000820e10003
:1017e00009a8e1000ab0e1000bb8e1000d003d00de
:1017f000080037000006eb00e00f5200e08f5a00af
:10180000e00f5b00e08f5b0006003d006044b80025
:101810006055b8000402540085825c0006035d0038
:1018200087835d00aaff07000c00e000060032007d
:101830006022b8006033b8000000520081805a0076
:1018400002015b0083815b004f0678004f05be00fc
:101850004f04be0000000600889fbe008a9fbe00a5
:101860008c1f78000006eb00e00f5000e08f58005e
:10187000e00f5900e08f590007003d006044b800b8
:101880006055b8000000540081805c0002015d00da
:1018900083815d001c002000e00f5200e08f5a00a1
:1018a000e00f5b00e08f5b0007003d006044b80084
:1018b0006055b8000402540085825c0006035d0098
:1018c00087835d000c00a200370007000c00e000d9
:1018d000060032006022b8006033b80000005200f9
:1018e00081805a0002015b0083815b004f06780013
:1018f0004f05be004f04be0000000600889fbe00da
:101900008a9fbe00841f780070fe07004f00780099
:1019100011003300f0ff2f00838f6c0006003b00a6
:10192000040565000a00a7000800370009f0a600ba
:101930001000200008003700820f5400838f5c00e5
:10194000030039001000200001003e0000002000cc
:1019500009f0a7000000ea004f05be004f04be00da
:101960000000e00000000600881f780003047800f3
:101970000300e00007003d0060001000e080180058
:1019800060011900e081190002003b0001f02d0008
:1019900003003700e1fd070008f0a70001f0a000f8
:1019a0004f04780000000600889fbe008a9fbe009a
:1019b0008c9fbe000404b8000506b80089044600e8
:1019c00060854e000606b8000a054600e0854e0018
:1019d0000706b8008b054600040eb80089044600cf
:1019e0000a854e00e0854d00050eb8000a05460048
:1019f0008b854e00060eb8008b0546000416b80015
:101a00000a0546008b854e000516b8008b0546007a
:101a1000041eb8008b0546000800be000a01be0087
:101a20004f06be004f05be004f04be00000006007a
:101a30000000fa00e88157004fb997000200070044
:101a40000080fa00000006000c00fa00881f7800f1
:101a50000104780082007800030178000002eb00a6
:101a60000800e000010032000802e900e4bf9f0026
:101a70008001eb00a3bf9f0090bf9f00b0bf9f00fd
:101a8000200c2000c0bf9f006e8057005b01070044
:101a90000800e000020032009fb897008048eb0089
:101aa0004f0478000080fa0000000600b041780082
:101ab00031c1510002003a000304e000fbff3a008c
:101ac0000200fb000000060000017800b141780030
:101ad000035978000304e000fcff3a000000060010
:101ae000800078003104e000feff3a000080ea0048
:101af00000804000000006008001780006003700ea
:101b00000201e900b14278008559780003027800ab
:101b10000504e00006003200030278000200e00045
:101b2000f7ff3a0002003700005aeb000201e9001b
:101b30000200e000fcff3a0000000600889fbe00a3
:101b40000004be000800e00003003a0038138100e2
:101b50000800e000130032000800be00e30f070099
:101b6000000444001804e00004003a000000eb0008
:101b700030138900000478000a0037000800be0016
:101b8000c70f070000004400301389001004e00074
:101b9000020032000058eb00010037000000eb00ab
:101ba00030138900080078004f04be0000000600d2
:101bb0000c00fa00889fbe0000047800f0ff2700a8
:101bc000d0bf9f008004eb0099bf9f0088bf9f009b
:101bd000a8bf9f00200c2000b0bf9f00708057005e
:101be000a00607000fb89700094878008fb8970043
:101bf000088050004f04be000080fa00000006007c
:101c00000000fa00e88157004fb997000200070072
:101c10000080fa00000006000c00fa00881f78001f
:101c20000104780082007800030178000002eb00d4
:101c30000800e000010032000802e900e4bf9f0054
:101c40008001eb00a3bf9f0090bf9f00b0bf9f002b
:101c5000200c2000c0bf9f006e8057008106070047
:101c60000800e000020032009fb897008048eb00b7
:101c70004f0478000080fa00000006000800fa0017
:101c8000889fbe008a9fbe000084fb00d1c6b300bf
:101c9000814f50003a0036004b0620001100090029
:101ca0000b84d80081057800720040004300dd00fd
:101cb000e9bd2100008044006022b8000600200039
:101cc00007fe23009000900020019000b0019000da
:101cd00010007800e21107000002be000203be00ff
:101ce00084bf9f0095bf9f00a6bf9f00b7bf9f0006
:101cf000aa002000110009008a85d800800578001c
:101d0000e9854500c35ddd008b8544001b0278003a
:101d10009b0290002b039000bb0390000fb897002c
:101d20009fb897002fb99700bfb99700cc11070053
:101d30000002be000203be0084bf9f0095bf9f004b
:101d4000a6bf9f00b7bf9f00110009000a84d800fa
:101d5000010478004344dd008884440019027800bf
:101d60009902900029039000b90390000fb89700e2
:101d70009fb897002fb99700bfb99700230037008d
:101d8000ea4f500017003600aa0020001100090099
:101d90000a84d80001057800690440004344dd004e
:101da000e9bd2100088444006022b800060020003c
:101db00007fe23001800780098009000280190008a
:101dc000b8019000a61107004355dd008a84440045
:101dd000190278009902900029039000b90390003d
:101de0000a0037004344dd00e0bd21000804400044
:101df0006022b8000600200007fe230018007800cb
:101e00009800900028019000b801900094110700fc
:101e10004f05be004f04be000080fa00000006001f
:101e20000800fa00889fbe008a9fbe00d1c6b3009a
:101e30000004e00027003d000040ea000004fb0031
:101e4000814f50000a0034004206200011000900b2
:101e50000204d800a9002000110009008900d80060
:101e6000e9004000c308dd00eabd2100250037007d
:101e7000ea4f500014003400a200200011000900b5
:101e80000204d80001017800690040004300dd0031
:101e9000e1bd2100008040004311dd008280400050
:101ea000110278009102900021039000b10390008c
:101eb0009000900020019000b00190001000780088
:101ec00067110700400037004344dd00e0bd2100fa
:101ed000380037000004fb00814f50002900340017
:101ee00042062000110009000204d800a9002000c9
:101ef000110009008900d800e9004000c308dd0096
:101f0000eab22100810045001102780091029000a0
:101f100021039000b10390008b0920008a854500c1
:101f20001b0078009b0090002b019000bb019000eb
:101f30004b1107000002be000203be0084bf9f00d9
:101f400095bf9f00a6bf9f00b7bf9f00110009006b
:101f50000904d800010478004344dd000805450069
:101f60001a0278009a0290002a039000ba039000a7
:101f70000fb897009fb897002fb99700bfb9970087
:101f8000cfff3700ea4f500008003400a2002000c5
:101f9000110009000204d800010178006900400026
:101fa0004300dd00e1b22100baff37004344dd0009
:101fb000e0b221000804400018007800980090006a
:101fc00028019000b80190004f05be004f04be00ec
:101fd0000080fa0000000600d0019000028151004c
:101fe0004240a90003003400100178000149780044
:101ff0000208e80001007800000006006f02b0004f
:10200000889fbe008a9fbe008c9fbe008e1f7800f6
:1020100000067800b1af9f0092b79f006000b80043
:102020006011b800d0af9f00e1af9f00f2af9f00fa
:1020300083b79f008006eb00d2043700bfa897004b
:102040008100e800b1af9f0051c2b300814f500042
:1020500003003a00bfa897000007eb00110037000b
:10206000bc0090000000fb000168a30007003200e4
:102070000d017800800078000c007800d6ff070082
:102080000000e00005003a00be0437008c00780034
:10209000400e0700e10f4000ba0432008d06e80050
:1020a000b80437000101780031407800d3c2b30092
:1020b000834f50000c00320007003c00edc151007e
:1020c000834f50000a003200ebc14100834f5000a3
:1020d0000d003a000800370003c3b300834f5000df
:1020e00009003a00060037000e30a000edff37006f
:1020f0000e00a000ebff37000e10a000e9ff370034
:102100000e20a000e7ff37000e18a30001003200e8
:102110000e00a1000e38a300010032000e20a10025
:102120008000fb000103b100e98f50000c003e006d
:10213000020078008005eb00ea59b900b005fb0009
:102140000b03b10082854500000178009000fb0080
:102150000103b100e98f5000f7ff36000800370097
:102160008005eb00a1c2b300814f500004003a008b
:102170009fb19700c305780093b79f000201e80064
:10218000e0c2b300924f100016003a000ee0a0002b
:1021900064405000d24f100003003200020078006b
:1021a0008001eb00080037009fb2970045037800dc
:1021b00095b79f00e6b79f000201e8000c003700ca
:1021c000ea19b9008281400000017800b000fb00ec
:1021d0000103b100e98f5000f9ff3600e3b79f001b
:1021e000030037000ec0a0008003eb00e7b79f009c
:1021f000820178003340780003017800c1c6b30043
:10220000814f50002b003200b3af9f0014003c0000
:10221000e8c05000814f50002400320009003c000b
:10222000ecc05000814f50002a003200ebc040004b
:10223000814f50008c0032000004e0005604320050
:10224000a200370061c6b300814f50001b0032006e
:10225000e3c04000814f50009c003a00130037005b
:1022600031c7b300814f50001e00320007003c0010
:10227000e4c05000814f5000130032008140e8005c
:10228000814f500091003a001200370051c7b3004f
:10229000814f500092003200e3c04000814f500057
:1022a0008a003a00e0cf9f000c003700e0cf9f008b
:1022b0008d0037000e40a000cdff3700e0cf9f001b
:1022c0000ea0a00088003700e0cf9f000e60a000a5
:1022d00085003700e0cf9f000e50a0000e70a000d8
:1022e00081003700e0cf9f009fb097004100780049
:1022f00091b79f00000478000000e00001003a0060
:1023000088d12100880078000000eb000100370030
:102310000000e800008140001204e000fcff3a00e9
:10232000800478006fb197000200e00003003200e3
:10233000890f510001003100820478000005eb0094
:10234000898f550001003600098555006807670030
:102350002a003a00110037003c0090000068a300fa
:10236000070032000d017800010220000c00780007
:1023700019ff07000000e00006003a0006003700e1
:102380008c00780000022000820d0700e10f400061
:10239000010032008d06e8000a05e9000a00e000ad
:1023a000edff3a000085eb00140037003c00900080
:1023b0000068a3000900320008007800b000fb00ac
:1023c000000478000d0178000c00780002ff07007f
:1023d0000000e00008003a0008003700880078009c
:1023e0003100fb00010478008c007800690d0700c3
:1023f000e10f4000010032008d06e800090078007e
:102400008004e9000000e000e8ff3a000e00e00070
:10241000dc033200110037003c0090000068a3008c
:10242000070032000d017800010220000c00780046
:10243000e9fe07000000e00006003a000600370051
:102440008c00780000022000520d0700e10f4000d0
:10245000010032008d06e8000a05e9000a00e000ec
:10246000edff3a00c70337009fb1970043027800a1
:1024700093b79f00cfa2de00482bdd004820de008e
:1024800000007300c828de00e0cf9f000e48a300c4
:10249000080032000004e00006003200e14f400076
:1024a00004003200f0cf9f0084d79f002900200055
:1024b00002003700f4cf9f0019002000e7fc2f0036
:1024c0008f8343000704e80096ff3700e0cf9f00aa
:1024d000e8fc2f000f0444001900200091ff370092
:1024e000e0cf9f000e0cb300017020008100670058
:1024f000700067000100e000220232000ec8a30055
:102500000200320061002000e1b79f000000e000ff
:10251000080032001fb097006800500010027800d9
:102520009002900020039000b003900090b79f00ad
:10253000080037001fb197006401510012007800b5
:102540009200900092b79f00510f07000002be005a
:102550000203be00a4b79f00b5b79f00c6b79f0097
:10256000d7b79f006022b8006033b8002fb0970043
:10257000bfb097004fb19700dfb19700960e0700ec
:102580000000e0000a003d002fb09700bfb09700a8
:102590004fb19700dfb1970003f0a200a0b79f00f2
:1025a000b1b79f00c2b79f00d3b79f003e00b300f2
:1025b0000000eb0090af9f006022b8006033b800cd
:1025c0002fb09700bfb097004fb19700dfb19700d1
:1025d000e50e07000000e0003400320024fd2f006b
:1025e0000f0242002fb09700bfb097004fb1970085
:1025f000dfb197007a0f07001fa897000000e900dd
:10260000e300b900a2002000110009000200d80078
:1026100090af9f000000e00002003d000000e900d4
:1026200090af9f001fac97000840ea00fcfd070038
:102630002fb29700bfb297004fb39700dfb3970058
:10264000870f07000002be000203be00d4af9f0048
:10265000e5af9f00f6af9f0087b79f006022b800ec
:102660000600200007ff23005b0e07000000e000cb
:1026700002003d000804e9000b0037006022b800aa
:1026800006002000470224005fa89700efa89700eb
:102690007fa997008fb19700540e07000000e0005b
:1026a000020035000804e80098af9f00efb29700e1
:1026b000ec8f52000f003c00054078006ffd0700d2
:1026c0000002be000203be002fb09700bfb097000b
:1026d0004fb19700dfb19700630d07000002be0005
:1026e0000203be00a4b79f00b5b79f00c6b79f0006
:1026f000d7b79f001fac9700e90f540015003c00ae
:102700006022b8006033b8002fb09700bfb09700c8
:102710004fb19700dfb19700930e07000000e00073
:10272000310032002fb09700bfb097004fb1970033
:10273000dfb19700f50e0700e00f5000e08f580062
:10274000e00f5900e08f590027003a00e10f5400d4
:10275000250034000400200005002e00b6e0220011
:10276000170124005fa89700efa897007fa99700a2
:102770008fb19700180e07000000e00002003d0036
:1027800069045400010037006804540098af9f00aa
:102790002fd09700a2fd07000002be000203be007a
:1027a000d4af9f00e5af9f00f6af9f0087b79f00b3
:1027b0002fb09700bfb097004fb19700dfb19700df
:1027c0000f0e0700d10e07000004be006000b80025
:1027d0006011b800a0b79f00b1b79f00c2b79f00bb
:1027e000d3b79f00160037002fb09700bfb09700f7
:1027f0004fb19700dfb19700c40e07000004be0080
:10280000f30e07000002be000203be002fb09700c7
:10281000bfb097004fb19700dfb19700860f070058
:102820000002be000203be00a4b79f00b5b79f0020
:10283000c6b79f00d7b79f000000eb0090af9f0086
:1028400001d2210010c0b30005003700e480400031
:10285000b10f5400a18f5c00030039000040e80074
:10286000ea4f5000f9ff3a00e0cf9f009fa8970081
:1028700081805500efb29700858050000000fb007a
:10288000008550000500e000010032000a05e90063
:1028900063006700010032000a05e9000e28a3006a
:1028a00039003200610167000e18a3000f003200ea
:1028b0003c0090000068a30006003200b102200036
:1028c0000200e000010032008180e8000d01780084
:1028d0000d003700b00220000200e00001003200cd
:1028e0000080e8008c0078000e0037000200e00055
:1028f000220032003c0090000068a3000700320074
:102900000d017800010220000c007800b2fd0700e4
:102910000000e00006003a00180037008c00780044
:10292000000220001b0c0700e10f400013003200e2
:102930008d06e800110037003c0090000068a300fd
:10294000070032000d017800010320000c00780020
:10295000a1fd07000000e00006003a000600370075
:102960008c007800000320000a0c0700e10f4000f3
:10297000010032008d06e8000a05e9000a00e000c7
:10298000edff3c00590037000e38a30014003a0058
:10299000110037003c0090000068a30007003200df
:1029a0000d017800010220000c0078008afd07006c
:1029b0000000e00006003a00060037008c007800b6
:1029c00000022000f30b0700e10f4000010032007d
:1029d0008d06e8000a05e9000a00e000edff3c0072
:1029e000610167000e18a3000e0032003c00900049
:1029f0000068a30005003200b10220000200e000e0
:102a0000230032008180e80021003700b00220005e
:102a10000200e000010032000080e8008c00780035
:102a20002e0037000200e000300032003c00900031
:102a30000068a300030032000d01780001022000ad
:102a4000140037008c0078000002200023003700bb
:102a50003c01900000d221008100fb000268a3002d
:102a600011003200c208dd00810040001101780031
:102a7000910190000800be0060fa0700a20020004b
:102a8000030020006dfa0700010320008080400051
:102a90000d0178000c0078004ffd07000000e000f9
:102aa00011003a0011003700c208dd00810040002b
:102ab00011017800910190000800be004ffa070054
:102ac000a2002000030020005cfa0700020320009f
:102ad000000141008c00780002007800ad0b070077
:102ae000e10f4000010032008d06e8006fc897003a
:102af0008040e900e1cf9f000004e000d4ff3a00ed
:102b0000130037003c0090000068a300070032006b
:102b10000d017800010320000c0078002efd070055
:102b20000000e00006003a00060037008c00780044
:102b300000032000970b0700e10f40000100320066
:102b40008d06e8001fa897000000e90090af9f00e5
:102b50001fa897000000e000eaff3c006fb3970059
:102b6000e80f53000300340080c0b300e0cf9f00a3
:102b700002003700cfeb9700e7cf9f006fc89700a8
:102b80008005fb00efb097008b8550000004e0004b
:102b9000100032003c0090000068a30007003200e3
:102ba0000d017800e10220000c0078000afd07000a
:102bb0000000e00006003a00060037008c007800b4
:102bc000e0022000730b0700e10f4000010032001b
:102bd0008d06e8006fc8970091fc07000002be0058
:102be0000203be002fb09700bfb097004fb197000f
:102bf000dfb197001a0e0700c40d07003000370040
:102c00003c01900001d221000000fb000268a300fb
:102c1000110032004200dd00808040001101780088
:102c2000910190000800be00f4f90700a200200006
:102c30000300200001fa070001032000808040000b
:102c40000d0178000c007800e3fc07000000e000b4
:102c500011003a00110037004200dd008080400082
:102c600011017800910190000800be00e3f907000f
:102c7000a200200003002000f0f90700020320005a
:102c8000000141008c00780002007800410b070031
:102c9000e10f4000010032008d06e8006fc9970087
:102ca0000200fb004200dd0001d221000080400054
:102cb00010017800900190000800be00dff90700c5
:102cc0000004be00efc897000140e900e0cf9f007c
:102cd0000104e000caff3a00110037003c009000f8
:102ce0000068a300070032000d01780001032000f6
:102cf0000c007800b8fc07000000e00006003a0075
:102d0000060037008c00780000032000210b07002c
:102d1000e10f4000010032008d06e8008b05e9005c
:102d20000b00e000edff3a000e38a30095013200e1
:102d30000a00e000930134003c0090000068a3000a
:102d4000070032000d017800010220000c0078001d
:102d5000a1fc07000000e00006003a000600370072
:102d60008c007800000220000a0b0700e10f4000f1
:102d7000010032008d06e8000a05e900eeff3a0086
:102d8000800137008e007800010cb20013003a0079
:102d90000000e000060032009fb19700e48151007e
:102da000130478009304900093b79f000400370049
:102db0001fb297004404780094b79f00cfc4de0090
:102dc000e00f5400e08f5c0010003d003e00b300b7
:102dd00060041400e0841c000c0037000000e000d8
:102de000060032009fb29700e4825200150478007a
:102df0009504900095b79f00040037001fb397001b
:102e00004604780096b79f008004eb00efb397006c
:102e10000700e00006003a000880740000f0a700f8
:102e20000000ea000000e9004f00de00e0b79f006c
:102e30000e007800000cb200c0af9f00000420001c
:102e4000cfa89700808f50002300320003003c0081
:102e50000100e000080032002d00370000082000cb
:102e60004fa99700800f51000d003200000c200088
:102e7000800f510026003a0001d2210010c0b3009b
:102e8000e4804000b10f5400a18f5c001f003900a6
:102e90000040e800ea4f5000f9ff3a001b003700fd
:102ea00010c0b3000201200003002000820f540074
:102eb000838f5c0015003900441add00cc11de0060
:102ec000830172004411dd000040e800e84f50002b
:102ed000f6ff3a000d00370010c0b300820020005a
:102ee00003002000820f5400838f5c00070039002c
:102ef000c31add00cd11de00838172004311dd00b5
:102f00000040e800eb4f5000f6ff3a00e0cf9f0092
:102f10006fcb97000600fb00efb39700870f5000c0
:102f200002003d00e7cf9f0004003700efb097009c
:102f3000808f500001003d00e0b79f000b00e000d3
:102f40000300320063006700010032008b05e900d6
:102f50000ee8a300060032006fb19700828f550083
:102f60000200340082855500010037008005eb0027
:102f7000efc997000300fb000002eb00a4b79f001d
:102f8000808f55000200340000805500a0b79f00dc
:102f90000e28a3003c003200610167000e18a30058
:102fa0000f0032003c0090000068a30006003200d1
:102fb000b10220000200e000010032008180e80040
:102fc0000d0178000d003700b00220000200e00083
:102fd000010032000080e8008c0078000e0037000d
:102fe0000200e000100032003c0090000068a300e6
:102ff000070032000d017800010220000c0078006b
:10300000f5fb07000000e00006003a00060037006c
:103010008c007800000220005e0a0700e10f4000eb
:10302000010032008d06e800afb297000500e00015
:1030300052003200050578003c0090000068a300b3
:10304000070032000d017800010320000c00780019
:10305000e1fb07000000e00006003a000600370030
:103060008c007800000320004a0a0700e10f4000ae
:10307000010032008d06e8000a05e900eeff3a0083
:10308000aab79f003d0037002fb397000600e0006d
:10309000160032000e38a30014003a00060578002e
:1030a0003c0090000068a300070032000d0178008a
:1030b000010220000c007800c7fb07000000e000c0
:1030c00006003a00060037008c007800000220005d
:1030d000300a0700e10f4000010032008d06e800d1
:1030e0000a05e900eeff3a00aab79f0061016700f8
:1030f0000e18a3000f0032003c0090000068a300ef
:1031000006003200b10220000200e000010032009f
:103110008180e8000d0178000d003700b00220002a
:103120000200e000010032000080e8008c0078001e
:103130000e0037000200e000100032003c0090005a
:103140000068a300070032000d0178000102200092
:103150000c007800a0fb07000000e00006003a0029
:10316000060037008c00780000022000090a0700e2
:10317000e10f4000010032008d06e800efb3970038
:103180000702e900e320b900a0af9f004222dd0062
:1031900000d221000002420004057800cfad970064
:1031a0005d003700efb097008100e900e1b79f00b4
:1031b00000042000808f55003800320003003c00de
:1031c0000b00e000070032003e003700000820003e
:1031d000808f550020003200000c2000808f5500a9
:1031e00038003a000e48a300110032001a0278009d
:1031f0009a0290000401be000800be00f4b79f00d0
:1032000085bf9f007df80700e0cf9f000000fb0016
:10321000cf80de007fb297008fba97000401be0016
:10322000320d07000004540081845c000700370061
:103230001a017800110009000284d800a2002000c1
:10324000110009000280d800e1cf9f006fc99700ec
:103250000243b0000f00370070d021000e58a300c9
:103260000100320060cf210001d221008100550011
:103270000801be008100e900030033008301d10092
:103280000281d300fbff37006f01610002014000a3
:1032900012417800e2cf9f000a0037000800be000c
:1032a0002faa97000402e900030033008100d10037
:1032b0000080d300fbff3700674060000043b00090
:1032c000e0cf9f00bc009000efca97000500fb0014
:1032d0000168a300070032000d017800800078002b
:1032e0000c0078003cfb07000000e00005003a00fd
:1032f000050037008c007800a6090700e10f4000a8
:10330000010032008d06e8002fab970063035300e5
:10331000a6af9f0064055500efb397000700e000db
:10332000a0ff3a000e38a300160032002fb097001d
:103330000000e00013003400000578003c0090001d
:103340000068a300070032000d0178000102200090
:103350000c00780020fb07000000e00006003a00a7
:10336000060037008c007800000220008909070061
:10337000e10f4000010032008d06e8000a05e90077
:10338000eeff3a00bfa8970011407800e0cf9f0001
:103390000004e00029fb3a000d0078004f07780098
:1033a0004f06be004f05be004f04be006f02b100c5
:1033b00000000600889fbe008a9fbe000084fb00bc
:1033c000d1c6b300814f5000230036004b062000c9
:1033d000110009000b84d8008105780072004000bc
:1033e0004200dd002acc2100000045000200200040
:1033f00003f023009000900010007800cbf7070046
:103400000002be00a9002000110009008985d80033
:1034100080057800e9854500c25ddd008b0545002b
:103420001b0178009b0190000400be00bff707005d
:103430000002be00110009000984d80001047800d0
:103440004244dd00080545001a0178009a01900009
:103450000400be001b003700ea4f50001200360087
:10346000aa002000110009000a84d8000105780094
:10347000690440004244dd0029cc21000884440056
:103480000200200003f0230018007800980090004c
:10349000a6f707004255dd008a8444001901780030
:1034a00099019000070037004244dd0020cc210044
:1034b000080440000200200003f0230018007800f8
:1034c0009800900099f707004f05be004f04be001a
:1034d00000000600889fbe008a1f7800d1c6b30096
:1034e0000004e00028003d000040ea000004fb006a
:1034f000814f50000f0034004206200011000900e7
:103500000204d800a9002000110009008900d80099
:10351000e9004000c208dd002acc210081004500fe
:10352000110178009101900070e8800081e880002e
:1035300026003700ea4f500010003400a20020009f
:10354000110009000204d800010178006900400060
:103550004200dd0021cc2100008040004211dd004e
:10356000828040001101780091019000900090004d
:10357000100078006df707002e0037004244dd0090
:1035800020cc2100280037000004fb00814f5000b0
:103590001900340042062000110009000204d8007e
:1035a000a9002000110009008900d800e9004000ae
:1035b000c208dd00eac82100810045001101780041
:1035c00091019000d0e68000e1e6800057f7070007
:1035d0000002be00110009000904d80001047800af
:1035e0004244dd00080545001a0178009a01900068
:1035f0000400be00dfff3700ea4f5000080034002f
:10360000a2002000110009000204d8000101780086
:10361000690040004200dd00e1c82100ceff370014
:103620004244dd00e0c82100080440001800780092
:10363000980090004f0578004f04be00000006007f
:10364000d0019000028151004240a90003003400e3
:1036500010017800014978000208e80001007800b4
:1036600000000600af02b000889fbe008a9fbe0027
:103670008c9fbe008e1f780000077800a1af9f00ce
:10368000f2af9f006055b8000000eb00c0b79f008c
:10369000b4083700afa897008100e800a1af9f00f1
:1036a00051c2b300814f500003003a00afa9970008
:1036b0000000eb0013003700be0090000000fb008c
:1036c0000168a300070032004fb197008000780026
:1036d0000e007800daff07000000e00005003a0065
:1036e000a00837008e007800aa080700e10f40000c
:1036f0009c0832004fb197000201e800c2b79f005a
:10370000980837008300780033417800b4c2b300d2
:10371000844f51001300320007003c006b425200fe
:10372000844f51000d00320063424200844f51002b
:1037300012003a000d003700d4c2b300844f51008c
:103740000400320063424200844f51000b003a00f3
:10375000080037000030a000eaff37000000a0009a
:10376000e8ff37000010a000e6ff370000b0a0001f
:10377000e4ff37000020a000e2ff37000018a3009c
:10378000010032000000a1000038a3000100320057
:103790000020a1008201fb000303b100e98f51006a
:1037a0000e003e00010178008001eb0093b79f00fe
:1037b000ea1ab900b201fb000303b10084814100a1
:1037c000820078001202fb000403b100e90f5200ee
:1037d000f7ff360093b79f000a0037000002eb00a6
:1037e00094b79f00a3c2b300834f510005003a0075
:1037f000ffaa970045017800f5af9f0092b79f00a0
:103800008100e800e2c2b300914f110019003a00b4
:1038100000e0a000a0b79f00a0c2b300d14f1000ed
:1038200004003200010078008001eb0083b79f00a4
:10383000090037007faa9700c4027800f4af9f0008
:1038400085b79f008100e800afb197000e003700f8
:10385000ea1ab90084014100800078003001fb00c1
:103860000203b100e90f5100f9ff360083b79f0052
:10387000f5ff370000c0a000a0b79f000000eb00dc
:1038800080b79f00f0ff370031407800a1af9f0064
:1038900072c6b300824f50003500320018003c0061
:1038a000a3b79f0031c6b300814f5000d000320053
:1038b0000e003c00fcc05000814f5000420032001e
:1038c00006003c000004e0002b08320081c0e90043
:1038d000814f5000e0003a003300370081c5b3004b
:1038e000814f5000dc003a004400370051c6b3005d
:1038f000814f50002100320026003c00210037009b
:1039000002c7b300824f50003b0032000b003c0066
:1039100064415100824f50001c003200a3b79f0049
:10392000f1c6b300814f50002e003200e6c05000b7
:10393000814f5000c8003a0012003700a3b79f0023
:1039400051c7b300814f5000c8003200e3c04000af
:10395000814f500004003200e5c05000814f5000fc
:10396000bd003a002d003700a0cf9f002700370090
:10397000a3b79f00a0cf9f0017003700a0cf9f00e4
:103980000d003700a0cf9f00bc0037000340a0000f
:10399000bdff3700a0cf9f00afb1970003a0a000ec
:1039a000a3b79f00b5003700a0cf9f002fb29700ac
:1039b0000450a000a4b79f00afb297000580a000fc
:1039c000a5b79f00ad003700a0cf9f002fb0970094
:1039d0000050a000a0b79f00afb097000190a000da
:1039e000a5003700a0cf9f002fb197000260a00074
:1039f000a2b79f00a1003700a3b79f00a0cf9f00f0
:103a0000afb197000350a000a3b79f002fb297005b
:103a10000470a000a4b79f0098003700a0cf9f00bb
:103a2000ffaa970045007800f5af9f0000067800d8
:103a30000000e00001003a00acd621008c007800c4
:103a40000000eb00010037000000e80000814000aa
:103a50001204e000fcff3a00800678000fb09700e7
:103a60000000e000030032008d0f50000100310023
:103a7000800678000004eb009fb097008d8f500007
:103a8000010036000d8450002fb19700e80461005a
:103a900035003a00acb79f00bdb79f000a06be00d4
:103aa000cfb59700110037003e0090000068a300da
:103ab000070032000b017800010220000e007800a0
:103ac000dffe07000000e00006003a0006003700b5
:103ad0008e00780000022000ae070700e10f4000d2
:103ae000010032008b05e8000804e9000800e0004e
:103af000edff3a00cbb79f000c05be002fb6970034
:103b0000bfb697000084eb00aab79f00bbb79f0029
:103b1000170037003e0090000068a3000900320043
:103b20000c007800b000fb00000678000b01780064
:103b30000e007800c2fe07000000e00008003a0016
:103b40000c0037008c0078003100fb000106780083
:103b50008e0078008f070700e10f4000050032005b
:103b60008b05e80003003700aab79f00bbb79f0092
:103b7000cfb597000d0078008006e9000000e00056
:103b8000e4ff3a00cbb79f002fb59700bfb5970071
:103b90000900e00073073200cfb49700110037002e
:103ba0003e0090000068a300070032000901780081
:103bb000010220000e007800a1fe07000000e000d6
:103bc00006003a00060037008e0078000002200050
:103bd00070070700e10f4000010032008904e8008f
:103be0000804e9000800e000edff3a005c07370038
:103bf000ffa9970043007800f3af9f00cf80de005d
:103c0000c809de00480add004801de00020172003a
:103c1000a2cf9f00afb297000548a3000800320072
:103c20000204e00006003200e14f410004003200cf
:103c3000b2cf9f00c0cf9f002d00200002003700b0
:103c4000b0cf9f001d002000a0fc2f000f004000ff
:103c50000006e80081ff3700a0cf9f00acfc2f00da
:103c60000f0646001d0020007cff3700a0cf9f00fc
:103c7000afb09700010cb300a1b79f000170200006
:103c80002fb1970081006100700061000100e00029
:103c9000ee04320002c8a3000200320063002000dc
:103ca00083b79f000000e0000a0032007faa97005f
:103cb00068025200140078009400900024019000e3
:103cc000b4019000f4af9f005d0a07000004be003d
:103cd00005003700ffaa9700e4825200150478001f
:103ce00095049000f5af9f006011b8000800be0079
:103cf000a6f407000000e00004003d0009f0a20067
:103d00002fb097003000b300a0b79f000000eb0079
:103d1000f0a79f006011b8000800be00ae090700c0
:103d20000000e00024003200e2fc2f000f014100ff
:103d30000800be00c70907007fa097000000e90047
:103d4000e300b900a2002000110009000200d80021
:103d5000f0a79f000000e00002003d000000e90025
:103d6000f0a79f007fa697000c40ea00d9fd07004e
:103d70000801be006df507000005be00020020002e
:103d800003f8230081f407000000e00002003d007a
:103d90000c06e9000700370002002000031224008f
:103da0000a00be007bf407000000e00002003500be
:103db0000c06e800fca79f007fa69700afb0970015
:103dc0000188a30007003a000198a300b202320064
:103dd000e40f4600030035000fb19700820f560034
:103de000690235008fb197000300e0000500320042
:103df0002fb297000498a300020032008301e9006b
:103e000083b79f008fb2970080c0b300e88f520045
:103e100001003e000fe09700a0cf9f006011b800a6
:103e20000800be006c0907000000e000330032000b
:103e3000afce97000d405600a6fd07000001be0062
:103e40000800be0000f407000004be0095f407005f
:103e5000e1f407000001be000800be0000080700f2
:103e60000200200003f023004af407000000e000f5
:103e7000050035000200200003f023000800be000a
:103e8000f80707000004be000800be0085f4070024
:103e90000d01fb008201e800c219dd0024d72100da
:103ea00083014200b30f5000a38f58000700390070
:103eb000d2cc2c00c3dc23000800be001bf5070099
:103ec0000004be000c06e8000b0037004211dd00c4
:103ed00002014200b20f5000a28f580007003100cb
:103ee00002002000031224000800be000ff50700a6
:103ef0000004be000c06e900fca79f0001a0200002
:103f00002fb197008100610000202000808f5000b9
:103f100026003a008fb19700ea8f5100020034006a
:103f2000a400200084b79f000800be005df40700d5
:103f3000070037008fb297008502e90085b79f0020
:103f4000a2002000030020000c00be002bf507009b
:103f50000006be00e00f5000e08f5800060032005f
:103f6000a20020000300200034f50700e00f5000fd
:103f7000e08f5800efff32002fc897008000fb0051
:103f80000fb19700810f510008003d000240500022
:103f900050fd07000001be000800be00aaf30700a4
:103fa0000004be008fe19700a3cf9f001fb29700cf
:103fb000650052008fb297000500500090b79f0037
:103fc0000500e00003003a002fb0970000b8a300fe
:103fd000030032009fb097008100e90091b79f0075
:103fe0002fb1970063006100030032009fb197007a
:103ff0008301e90093b79f002fb297000428a30024
:10400000530032003e009000610162000418a300da
:10401000180032000068a3000a003200b10220003c
:104020000200e000010032008180e8004fb19700fb
:104030000e00780082fd07000000e00009003a0051
:104040003a003700b00220000200e0000100320018
:104050000080e8008e0078004e060700e10f400067
:1040600032003200cfb297008502e80005067800e2
:104070002f0037000200e0002c0032000068a3008f
:10408000070032004fb19700010220000e007800b7
:104090006bfd07000000e00006003a002300370037
:1040a0008e007800000220003a060700e10f400071
:1040b0001e0032004fb097000000e80000067800b4
:1040c0001b0037003e0090000068a3000b00320088
:1040d0000c017800010320000e007800f4b79f0067
:1040e00085bf9f0056fd07007fb297008fba9700eb
:1040f0000000e0000a003a000a0037008e00780055
:1041000000032000f4b79f0085bf9f002106070031
:104110007fb297008fba9700e10f40000100320094
:104120000c06e8008904e900030037004fb6970049
:104130000802be009fb497000900e000e1ff3c00c8
:1041400099b79f00ccb79f000404be004f00370012
:10415000afb097000138a3001c003a004fb697009b
:10416000d8af9f00e9af9f009fb4970011003700c0
:104170003e0090000068a300070032000c017800a8
:10418000010220000e0078002dfd07000000e00075
:1041900006003a00060037008e007800000220007a
:1041a000fc050700e10f4000010032000c06e800aa
:1041b0008904e9000900e000edff3c0099b79f0089
:1041c000ccb79f005fac9700efac97003e0090002b
:1041d000afb19700618161000318a300180032009d
:1041e0000068a3000a003200b10220000200e000d3
:1041f000010032008180e8004fb197000e00780086
:104200000ffd07000000e00009003a001f00370022
:10421000b00220000200e000010032000080e8004f
:104220008e007800db050700e10f40001700320028
:104230004fb297000402e800c4b79f001300370094
:104240000200e000110032000068a3000700320005
:104250004fb19700010220000e007800f8fc070023
:104260000000e00006003a00080037008e007800e9
:1042700000022000c7050700e10f400003003200e4
:10428000cfb297008502e800c5b79f000800be00c6
:1042900084f307000006be003e01900020d72100f5
:1042a000afc997008300fb000268a3000e00320034
:1042b000c208dd000100400010017800900190006c
:1042c0000c00be004df40700010320008080400078
:1042d0004fb197000e007800d9fc07000000e00005
:1042e0000e003a0010003700c208dd000100400057
:1042f00010017800900190000c00be003ff4070010
:1043000002032000000141008e00780002007800c6
:10431000a0050700e10f4000030032004fb29700f4
:104320000402e800c4b79f00afca97000500fb0075
:104330004200dd0021d721000080400010017800fc
:10434000900190000c00be003cf407000006be0087
:104350000fb097000000e00003003a00afb09700f4
:1043600001b8a300690032003e0090000068a3007d
:10437000070032004fb19700e10220000e007800e4
:10438000affc07000000e00006003a00080037001c
:104390008e007800e00220007e050700e10f40005b
:1043a000030032004fb197000201e800c2b79f003e
:1043b0002fcc9700cfb4970036003700afb19700ed
:1043c0000398a30008003200e00f5600e08f5e0063
:1043d00005003a00c9b79f000042eb00a4cf9f0040
:1043e0000004eb00460037003e01900020d721007a
:1043f0008100fb000268a3000e003200c208dd004d
:104400000100400010017800900190000c00be00f7
:10441000faf30700010320008080400009017800c2
:104420000e00780086fc07000000e0000e003a0055
:104430000e003700c208dd000100400010017800c6
:10444000900190000c00be00ecf307000203200076
:10445000000141008e007800020078004d05070041
:10446000e10f4000010032008904e800afca970064
:104470000500fb004200dd0021d721000080400044
:1044800010017800900190000c00be00ebf30700d3
:104490000006be002fc897008040e900a1cf9f0012
:1044a0000004e000c5ff3a00c9b79f000804fb0004
:1044b0000fb0970008045000110037003e00900034
:1044c0000068a30007003200090178000103200002
:1044d0000e0078005afc07000000e00006003a00d9
:1044e000060037008e007800000320002905070031
:1044f000e10f4000010032008904e8000804e900ef
:104500000800e000edff3a00c9b79f003e009000b0
:10451000afb097000158a300120032000068a3005a
:10452000070032004fb19700510420000e007800c0
:1045300043fc07000000e00006003a001a003700c4
:104540008e0078005004200012050700e10f4000a3
:10455000150032004fb197000201e800c2b79f007a
:10456000110037000068a300070032004fb1970028
:10457000510620000e00780031fc07000000e0002a
:1045800006003a00080037008e0078005006200030
:1045900000050700e10f400003003200cfb1970093
:1045a0008301e800c3b79f00ffa097003e00900082
:1045b0000100e00014003d008100ea00f1a79f0027
:1045c0000068a300070032004fb19700d10220001d
:1045d0000e0078001afc07000000e00006003a0018
:1045e0001a0037008e007800d0022000e90407008e
:1045f000e10f4000150032004fb297000402e800be
:10460000c4b79f00110037000068a3000700320004
:104610004fb19700b10220000e00780008fc07009f
:104620000000e00006003a00080037008e00780025
:10463000b0022000d7040700e10f40000300320061
:10464000cfb297008502e800c5b79f00be0090007a
:104650007fa097000168a3000b003200a200200099
:10466000110009000200d8000103200080804000f2
:104670004fb197000e007800f1fb07000000e0004a
:1046800009003a000b003700a200200011000900c9
:104690000200d8000003b0008e007800bd040700bf
:1046a000e10f4000030032004fb097000000e80027
:1046b000c0b79f00be0090007fa097000168a300d4
:1046c0000a003200a2002000110009000200d800f8
:1046d0000103b0004fb197000e007800d8fb07002f
:1046e0000000e0000a003a000c003700a2002000a1
:1046f000110009000200d800000320000100400062
:104700008e007800a3040700e10f40000300320090
:10471000cfb097008100e800c1b79f002fb197008c
:104720000238a3008f0432009fb197000300e0001d
:104730008c04340003047800cfb497003e0090004e
:104740000068a30007003200090178000102200080
:104750000e007800bafb07000000e00006003a00f7
:10476000060037008e007800000220008904070050
:10477000e10f4000010032008904e8000804e9006c
:10478000eeff3a00760437000c00e00004003d0024
:104790000c86ea000fb297000c02420084b79f001b
:1047a0000800be003ff20700d0af9f00e1af9f00be
:1047b000e1d621000040eb0007003700e480400014
:1047c0005faa9700efaa9700b10f5200a18f5a007d
:1047d000030039000040e800ea4f5000f7ff3a00bc
:1047e0000000fb008fb297008082520085b79f00c7
:1047f000ec8f520006003c0005407800edfa0700ff
:104800000001be000800be00960507000004be00bf
:104810000fe097002ffb07000006be005fa897007f
:10482000efa897006cf207000001be000800be0070
:104830008b0507000001be000c00be00bbf20700a4
:1048400018f207000006be0008003700a200200092
:10485000030020000c00be00e8f207000006be00c6
:104860000fb097000000e90080b79f008fb097005d
:104870000100e00011003200a2002000030020002f
:104880000c00be00edf20700e00f5000e08f580072
:10489000eeff3200090037000fb19700ec0f510016
:1048a00006003c0002407800c2fa07000001be008a
:1048b0000800be006b0507000004be007fa697003d
:1048c000e90f56000c003c006011b8000800be0063
:1048d000c10607000000e0001b0032000800be0017
:1048e000f0f10700e00f5000e08f580016003a008a
:1048f000e10f560014003400f2052700930824004d
:104900000a00be00a1f107000000e00002003d0027
:10491000690656000100370068065600fca79f0094
:104920006fc89700ebfa07000005be000001be004b
:104930000800be0044f10700daf107000006be00df
:104940006044b8000a0037000800be00d5f1070037
:104950000006be0020f207000001be000800be00f5
:104960003f0507000004be000000eb00f0a79f0019
:1049700021d7210010c0b30005003700e4804000bb
:10498000b10f5600a18f5e00030039000040e8001f
:10499000ea4f5000f9ff3a00a0cf9f00ffa0970018
:1049a0009fb19700818051000fb297008480500022
:1049b0000000fb000080500090b79f0000802000a6
:1049c000afb2970000806200d0af9f0002003a00b3
:1049d0000400e000030032001fb097000000e9006f
:1049e00090b79f00afb09700638060000300320073
:1049f0001fb197000201e90092b79f00afb1970085
:104a00000328a3005e003200618161000318a30047
:104a1000190032003e0090000068a3000a00320036
:104a2000b10220000200e000010032008180e800b5
:104a30004fb197000e00780001fb07000000e00076
:104a400009003a0043003700b00220000200e000f5
:104a5000010032000080e8008e007800cd030700de
:104a6000e10f40003b0032004fb297000402e80023
:104a7000c4b79f00370037000200e0003500320065
:104a80003e0090000068a300070032004fb197007d
:104a9000010220000e007800e9fa07000000e000a3
:104aa00006003a002b0037008e007800000220003c
:104ab000b8030700e10f400026003200cfb2970094
:104ac0008502e800c5b79f00220037003e00900035
:104ad0000068a3000f0032000d01780001032000e0
:104ae0000e007800f4b79f0085bf9f00d6b79f00e7
:104af000e7b79f00d2fa07007fb297008fba9700fe
:104b00005fb39700efb397000000e0000e003a009b
:104b10000e0037008e00780000032000f4b79f00dd
:104b200085bf9f00d6b79f00e7b79f009903070096
:104b30007fb297008fba97005fb39700efb39700eb
:104b4000e10f4000010032008d06e8008904e90011
:104b5000040037000802be009fb497000c03be009b
:104b6000cfb697000900e000d8ff3c0099b79f003e
:104b7000cdb79f000404be000606be007e003700cd
:104b80002fb097000038a30020003a00b8af9f0074
:104b9000c9af9f009fb497008caf9f009daf9f004f
:104ba000cfb69700110037003e0090000068a300c8
:104bb000070032000d017800010220000e0078008d
:104bc0009ffa07000000e00006003a0006003700e8
:104bd0008e007800000220006e030700e10f400005
:104be000010032008d06e8008904e9000900e000b8
:104bf000edff3c0099b79f00cdb79f003fac9700f9
:104c0000cfac97000fae97009fae9700afb2970062
:104c1000618162000518a300190032003e00900077
:104c20000068a3000a003200b10220000200e00088
:104c3000010032008180e8004fb197000e0078003b
:104c40007ffa07000000e00009003a004a00370040
:104c5000b00220000200e000010032000080e80005
:104c60008e0078004b030700e10f40004200320045
:104c70004fb097000000e800c0b79f003e0037002b
:104c80000200e0003c0032003e0090000068a300fb
:104c9000070032004fb19700010220000e0078009b
:104ca00067fa07000000e00006003a003200370013
:104cb0008e0078000002200036030700e10f40005c
:104cc0002d003200cfb097008100e800c1b79f00ef
:104cd000290037003e01900021d721000000fb0091
:104ce0000268a300110032004200dd000080400095
:104cf00010017800900190000c00be00bff1070089
:104d0000a200200003002000ccf1070001032000d6
:104d1000808040004fb197000e00780048fa0700ed
:104d20000000e00011003a00130037004200dd00ef
:104d30000080400010017800900190000c00be003f
:104d4000aef10700a200200003002000bbf1070025
:104d500002032000000141008e007800020078006c
:104d60000c030700e10f4000030032004fb1970031
:104d70000201e800c2b79f00afc897000140e900f8
:104d8000a0cf9f000104e000d2ff3a000806be0059
:104d9000cfb49700130037003e0090000068a300d6
:104da0000700320009017800010320000e0078009e
:104db00023fa07000000e00006003a000600370072
:104dc0008e00780000032000f2020700e10f40008f
:104dd000010032008904e8007fa097000000e9008c
:104de000f0a79f007fa097000000e000eaff3c00d2
:104df000c9b79f000c04be008fb19700e88f510027
:104e00000300340080c0b300a0cf9f000200370031
:104e10000fe29700a4cf9f002fc897008000fb00ef
:104e20008fb297008180520081b79f000004e0009c
:104e300003003a005fa897000000e0001200320073
:104e40003e0090000068a300070032004fb19700b9
:104e5000e10220000e007800f9f907000000e000f0
:104e600006003a00080037008e007800e0022000bb
:104e7000c8020700e10f400003003200cfb09700e6
:104e80008100e800c1b79f002fc8970091f9070083
:104e90000001be000800be0024f1070081f00700f9
:104ea0000006be004fb49700310037003e0190006d
:104eb00020d721008100fb000268a300110032000e
:104ec000c208dd0001004000100178009001900050
:104ed0000c00be0049f10700a200200003002000e2
:104ee00056f107000103200080804000080178008f
:104ef0000e007800d2f907000000e00011003a002f
:104f000011003700c208dd000100400010017800e8
:104f1000900190000c00be0038f10700a2002000b4
:104f20000300200045f107000203200000014100ba
:104f30008e0078000200780096020700e10f400022
:104f4000010032000804e8002fc997000200fb00ae
:104f50004200dd0021d721000080400010017800d0
:104f6000900190000c00be0034f107000006be0066
:104f70002fc897008040e900a1cf9f000004e00007
:104f8000caff3a00c8b79f000fb49700cfb497008c
:104f9000110037003e0090000068a30007003200b7
:104fa00009017800010320000e007800a4f9070031
:104fb0000000e00006003a00060037008e0078008e
:104fc0000003200073020700e10f400001003200df
:104fd0008904e8000804e9000800e000edff3a0059
:104fe000c9b79f00afb197000338a3005d0232003c
:104ff0001fb297000400e0005a0234000404780055
:105000003e0090000068a30007003200090178000c
:10501000010220000e00780089f907000000e0007e
:1050200006003a00060037008e00780000022000db
:1050300058020700e10f4000010032008904e80037
:105040000804e900eeff3a0045023700afb09700d0
:10505000010cb20015003a000000e000060032002a
:10506000ffaa9700e482520015067800950690008a
:10507000f5af9f00040037007fa897004006780036
:10508000f0af9f00cfe6de00e00f5600e08f5e003d
:1050900012003d00afb097003100b300a1b79f00f0
:1050a00060061600e0861e000c0037000000e000dd
:1050b000060032007fa997006401510012067800b3
:1050c00092069000f2af9f0004003700ffa99700fe
:1050d00043067800f3af9f008006eb000fb2970005
:1050e0000400e00006003a000c80760000f0a70003
:1050f0000000ea000000e9004f00de0080b79f00da
:10510000afb29700050cb200b5af9f0000042000bd
:10511000808f52002300320003003c000500e000b5
:10512000080032002d00370000082000bfa89700bb
:10513000808f50000d003200000c2000808f500046
:1051400026003a0021d7210010c0b300e4804000bf
:10515000b10f5600a18f5e001f0039000040e8002b
:10516000ea4f5000f9ff3a001b00370010c0b300af
:105170000201200003002000820f5600838f5e0092
:1051800015003900441add00cc11de0083017200e5
:105190004411dd000040e800e84f5000f6ff3a00ff
:1051a0000d00370010c0b300820020000300200073
:1051b000820f5600838f5e0007003900c31add009e
:1051c000cd11de00838172004311dd000040e80054
:1051d000eb4f5000f6ff3a00a0cf9f00afc89700fa
:1051e0000100fb000fb19700820f500002003d004c
:1051f000a2cf9f00040037008fb19700808f51002d
:1052000001003d0080b79f001fb297000400e0003e
:1052100005003200afb297006380620002003200e6
:105220000402e90094b79f002fb0970000e8a300a4
:10523000090032009fb097000fb19700828f500095
:10524000030034008280500091b79f0002003700b5
:105250008001eb0093b79f00418c20002fb2970094
:105260008100620000842000808f500006003a0018
:105270009fb297000500e000110032008502e900ae
:1052800095b79f000e003700018c20002fb09700cb
:105290008100600000882000808f500008003a00e4
:1052a0009fb09700e28f5000030034008180e90036
:1052b00091b79f00020037000001eb0092b79f00fa
:1052c000afc997000300fb000002eb00d4af9f00c2
:1052d0009fb29700808f520002003400008052007d
:1052e000d0af9f002fb097000028a3007d003200b0
:1052f000610160000018a300190032003e00900018
:105300000068a3000a003200b10220000200e000a1
:10531000010032008180e8004fb197000e00780054
:10532000c7f807000000e00009003a00530037000a
:10533000b00220000200e000010032000080e8001e
:105340008e00780093010700e10f40004b0032000f
:10535000cfb097008100e800c1b79f004700370039
:105360000200e000130032003e0090000068a3003d
:10537000070032004fb19700010220000e007800b4
:10538000aff807000000e00006003a003b003700dd
:105390008e007800000220007e010700e10f40002f
:1053a000360032004fb197000201e800c2b79f00fb
:1053b00032003700018c2000afb19700818061007e
:1053c00000882000808f50002c003a003e009000a2
:1053d0000068a300070032004fb1970001032000ce
:1053e0000e00780096f807000000e00006003a0082
:1053f000080037008e0078000003200065010700d8
:10540000e10f4000030032004fb297000402e800b1
:10541000c4b79f003e0090002fb197000202b20077
:105420000068a3000a003200810720000200e000ab
:1054300001003200810520004fb197000e00780076
:105440007ff807000000e00009003a000b00370079
:10545000800720000200e0000100320080052000eb
:105460008e0078004b010700e10f4000030032007e
:10547000cfb297008502e800c5b79f005fa89700ec
:105480000000e000ac00320000047800cfb49700c8
:105490003e0090000068a300070032000901780078
:1054a000010320000e00780065f807000000e0000e
:1054b00006003a00060037008e0078000003200046
:1054c00034010700e10f4000010032008904e800c8
:1054d0000804e900eeff3a00d8af9f00c9b79f006b
:1054e00095003700dfa897000100e00019003200a6
:1054f0002fb197000238a30016003a00010478008b
:10550000cfb497003e0090000068a300070032006f
:1055100009017800010220000e00780048f8070019
:105520000000e00006003a00060037008e00780018
:105530000002200017010700e10f400001003200c7
:105540008904e8000804e900eeff3a00d8af9f00a4
:10555000c9b79f00afb19700618161000318a30034
:10556000190032003e0090000068a3000a003200db
:10557000b10220000200e000010032008180e8005a
:105580004fb197000e0078002df807000000e000f2
:1055900009003a0020003700b00220000200e000bd
:1055a000010032000080e8008e007800f90007005a
:1055b000e10f4000180032004fb297000402e800eb
:1055c000c4b79f00140037000200e0001200320050
:1055d0003e0090000068a300070032004fb1970022
:1055e000010220000e00780015f807000000e0001e
:1055f00006003a00080037008e0078000002200004
:10560000e4000700e10f400003003200cfb2970032
:105610008502e800c5b79f00008c2000afb097005e
:105620000080600001842000810f500013003a00c8
:105630003e0090000068a300070032004fb19700c1
:10564000010320000e007800fdf707000000e000d5
:1056500006003a00380037008e0078000003200072
:10566000cc000700e10f4000330032004fb197003b
:105670000201e800c2b79f002f0037000188200018
:10568000810f50002c003a003e0090000068a300fb
:10569000070032004fb19700010320000e00780090
:1056a000e7f707000000e00006003a0008003700b6
